{
  "_format": "hh-sol-artifact-1",
  "contractName": "AdvancedSafeWithTokenbound",
  "sourceName": "contracts/guardian.sol",
  "abi": [
    {
      "inputs": [
        {
          "internalType": "address",
          "name": "_owner",
          "type": "address"
        },
        {
          "internalType": "address",
          "name": "_tokenBoundAccount",
          "type": "address"
        },
        {
          "internalType": "uint256",
          "name": "_guardianApprovalThreshold",
          "type": "uint256"
        }
      ],
      "stateMutability": "nonpayable",
      "type": "constructor"
    },
    {
      "inputs": [],
      "name": "CallerNotGuardian",
      "type": "error"
    },
    {
      "inputs": [],
      "name": "CallerNotOwner",
      "type": "error"
    },
    {
      "inputs": [],
      "name": "ContractPaused",
      "type": "error"
    },
    {
      "inputs": [],
      "name": "GuardianAlreadyApproved",
      "type": "error"
    },
    {
      "inputs": [],
      "name": "GuardianAlreadyExists",
      "type": "error"
    },
    {
      "inputs": [],
      "name": "GuardianDoesNotExist",
      "type": "error"
    },
    {
      "inputs": [
        {
          "internalType": "string",
          "name": "message",
          "type": "string"
        }
      ],
      "name": "InvalidAddress",
      "type": "error"
    },
    {
      "inputs": [],
      "name": "InvalidThreshold",
      "type": "error"
    },
    {
      "inputs": [
        {
          "internalType": "uint256",
          "name": "required",
          "type": "uint256"
        },
        {
          "internalType": "uint256",
          "name": "actual",
          "type": "uint256"
        }
      ],
      "name": "NotEnoughApprovals",
      "type": "error"
    },
    {
      "inputs": [],
      "name": "TimelockNotExpired",
      "type": "error"
    },
    {
      "inputs": [],
      "name": "TransactionAlreadyExecuted",
      "type": "error"
    },
    {
      "inputs": [],
      "name": "TransactionAlreadyProposed",
      "type": "error"
    },
    {
      "inputs": [],
      "name": "TransactionDoesNotExist",
      "type": "error"
    },
    {
      "inputs": [],
      "name": "TransactionRevoke",
      "type": "error"
    },
    {
      "anonymous": false,
      "inputs": [
        {
          "indexed": true,
          "internalType": "address",
          "name": "initiator",
          "type": "address"
        }
      ],
      "name": "EmergencyPaused",
      "type": "event"
    },
    {
      "anonymous": false,
      "inputs": [
        {
          "indexed": true,
          "internalType": "address",
          "name": "initiator",
          "type": "address"
        }
      ],
      "name": "EmergencyUnpaused",
      "type": "event"
    },
    {
      "anonymous": false,
      "inputs": [
        {
          "indexed": true,
          "internalType": "address",
          "name": "guardian",
          "type": "address"
        }
      ],
      "name": "GuardianAdded",
      "type": "event"
    },
    {
      "anonymous": false,
      "inputs": [
        {
          "indexed": true,
          "internalType": "address",
          "name": "guardian",
          "type": "address"
        }
      ],
      "name": "GuardianRemoved",
      "type": "event"
    },
    {
      "anonymous": false,
      "inputs": [
        {
          "indexed": true,
          "internalType": "address",
          "name": "oldOwner",
          "type": "address"
        },
        {
          "indexed": true,
          "internalType": "address",
          "name": "newOwner",
          "type": "address"
        }
      ],
      "name": "OwnerChanged",
      "type": "event"
    },
    {
      "anonymous": false,
      "inputs": [
        {
          "indexed": false,
          "internalType": "uint256",
          "name": "oldThreshold",
          "type": "uint256"
        },
        {
          "indexed": false,
          "internalType": "uint256",
          "name": "newThreshold",
          "type": "uint256"
        }
      ],
      "name": "ThresholdUpdated",
      "type": "event"
    },
    {
      "anonymous": false,
      "inputs": [
        {
          "indexed": true,
          "internalType": "address",
          "name": "guardian",
          "type": "address"
        },
        {
          "indexed": true,
          "internalType": "bytes32",
          "name": "txHash",
          "type": "bytes32"
        }
      ],
      "name": "TransactionApproved",
      "type": "event"
    },
    {
      "anonymous": false,
      "inputs": [
        {
          "indexed": true,
          "internalType": "bytes32",
          "name": "txHash",
          "type": "bytes32"
        },
        {
          "indexed": true,
          "internalType": "address",
          "name": "executor",
          "type": "address"
        }
      ],
      "name": "TransactionExecuted",
      "type": "event"
    },
    {
      "anonymous": false,
      "inputs": [
        {
          "indexed": true,
          "internalType": "bytes32",
          "name": "txHash",
          "type": "bytes32"
        },
        {
          "indexed": true,
          "internalType": "address",
          "name": "proposer",
          "type": "address"
        },
        {
          "indexed": false,
          "internalType": "uint256",
          "name": "unlockTime",
          "type": "uint256"
        }
      ],
      "name": "TransactionProposed",
      "type": "event"
    },
    {
      "anonymous": false,
      "inputs": [
        {
          "indexed": true,
          "internalType": "bytes32",
          "name": "txHash",
          "type": "bytes32"
        },
        {
          "indexed": true,
          "internalType": "address",
          "name": "revoker",
          "type": "address"
        }
      ],
      "name": "TransactionRevoked",
      "type": "event"
    },
    {
      "inputs": [
        {
          "internalType": "address",
          "name": "guardian",
          "type": "address"
        }
      ],
      "name": "addGuardian",
      "outputs": [],
      "stateMutability": "nonpayable",
      "type": "function"
    },
    {
      "inputs": [
        {
          "internalType": "bytes32",
          "name": "txHash",
          "type": "bytes32"
        }
      ],
      "name": "approveTransaction",
      "outputs": [],
      "stateMutability": "nonpayable",
      "type": "function"
    },
    {
      "inputs": [
        {
          "internalType": "bytes32",
          "name": "txHash",
          "type": "bytes32"
        }
      ],
      "name": "executeTransaction",
      "outputs": [],
      "stateMutability": "nonpayable",
      "type": "function"
    },
    {
      "inputs": [],
      "name": "guardianApprovalThreshold",
      "outputs": [
        {
          "internalType": "uint256",
          "name": "",
          "type": "uint256"
        }
      ],
      "stateMutability": "view",
      "type": "function"
    },
    {
      "inputs": [
        {
          "internalType": "address",
          "name": "",
          "type": "address"
        }
      ],
      "name": "guardians",
      "outputs": [
        {
          "internalType": "bool",
          "name": "",
          "type": "bool"
        }
      ],
      "stateMutability": "view",
      "type": "function"
    },
    {
      "inputs": [],
      "name": "owner",
      "outputs": [
        {
          "internalType": "address",
          "name": "",
          "type": "address"
        }
      ],
      "stateMutability": "view",
      "type": "function"
    },
    {
      "inputs": [],
      "name": "pause",
      "outputs": [],
      "stateMutability": "nonpayable",
      "type": "function"
    },
    {
      "inputs": [],
      "name": "paused",
      "outputs": [
        {
          "internalType": "bool",
          "name": "",
          "type": "bool"
        }
      ],
      "stateMutability": "view",
      "type": "function"
    },
    {
      "inputs": [
        {
          "internalType": "address",
          "name": "target",
          "type": "address"
        },
        {
          "internalType": "uint256",
          "name": "value",
          "type": "uint256"
        },
        {
          "internalType": "bytes",
          "name": "data",
          "type": "bytes"
        },
        {
          "internalType": "uint256",
          "name": "timelockDuration",
          "type": "uint256"
        }
      ],
      "name": "proposeTransaction",
      "outputs": [
        {
          "internalType": "bytes32",
          "name": "",
          "type": "bytes32"
        }
      ],
      "stateMutability": "nonpayable",
      "type": "function"
    },
    {
      "inputs": [
        {
          "internalType": "address",
          "name": "guardian",
          "type": "address"
        }
      ],
      "name": "removeGuardian",
      "outputs": [],
      "stateMutability": "nonpayable",
      "type": "function"
    },
    {
      "inputs": [
        {
          "internalType": "bytes32",
          "name": "txHash",
          "type": "bytes32"
        }
      ],
      "name": "revokeTransaction",
      "outputs": [],
      "stateMutability": "nonpayable",
      "type": "function"
    },
    {
      "inputs": [],
      "name": "tokenBoundAccount",
      "outputs": [
        {
          "internalType": "address",
          "name": "",
          "type": "address"
        }
      ],
      "stateMutability": "view",
      "type": "function"
    },
    {
      "inputs": [
        {
          "internalType": "bytes32",
          "name": "",
          "type": "bytes32"
        },
        {
          "internalType": "address",
          "name": "",
          "type": "address"
        }
      ],
      "name": "transactionApprovals",
      "outputs": [
        {
          "internalType": "bool",
          "name": "",
          "type": "bool"
        }
      ],
      "stateMutability": "view",
      "type": "function"
    },
    {
      "inputs": [
        {
          "internalType": "bytes32",
          "name": "",
          "type": "bytes32"
        }
      ],
      "name": "transactions",
      "outputs": [
        {
          "internalType": "address",
          "name": "target",
          "type": "address"
        },
        {
          "internalType": "uint256",
          "name": "value",
          "type": "uint256"
        },
        {
          "internalType": "bytes",
          "name": "data",
          "type": "bytes"
        },
        {
          "internalType": "uint256",
          "name": "approvals",
          "type": "uint256"
        },
        {
          "internalType": "uint256",
          "name": "unlockTime",
          "type": "uint256"
        },
        {
          "internalType": "bool",
          "name": "executed",
          "type": "bool"
        },
        {
          "internalType": "bool",
          "name": "revoked",
          "type": "bool"
        }
      ],
      "stateMutability": "view",
      "type": "function"
    },
    {
      "inputs": [
        {
          "internalType": "address",
          "name": "newOwner",
          "type": "address"
        }
      ],
      "name": "transferOwnership",
      "outputs": [],
      "stateMutability": "nonpayable",
      "type": "function"
    },
    {
      "inputs": [
        {
          "internalType": "address",
          "name": "newController",
          "type": "address"
        }
      ],
      "name": "transferTokenboundController",
      "outputs": [],
      "stateMutability": "nonpayable",
      "type": "function"
    },
    {
      "inputs": [],
      "name": "unpause",
      "outputs": [],
      "stateMutability": "nonpayable",
      "type": "function"
    },
    {
      "inputs": [
        {
          "internalType": "uint256",
          "name": "newThreshold",
          "type": "uint256"
        }
      ],
      "name": "updateApprovalThreshold",
      "outputs": [],
      "stateMutability": "nonpayable",
      "type": "function"
    },
    {
      "stateMutability": "payable",
      "type": "receive"
    }
  ],
  "bytecode": "0x60806040523480156200001157600080fd5b506040516200162c3803806200162c833981016040819052620000349162000112565b6001600160a01b03831615806200005257506001600160a01b038216155b15620000bc57604051630b0f5aa160e11b815260206004820152602e60248201527f4f776e6572206f7220546f6b656e626f756e64206163636f756e74206164647260448201526d195cdcc81a5cc81a5b9d985b1a5960921b606482015260840160405180910390fd5b600080546001600160a01b039485166001600160a01b031991821617909155600180549390941692169190911790915560025562000153565b80516001600160a01b03811681146200010d57600080fd5b919050565b6000806000606084860312156200012857600080fd5b6200013384620000f5565b92506200014360208501620000f5565b9150604084015190509250925092565b6114c980620001636000396000f3fe60806040526004361061010d5760003560e01c80638456cb5911610095578063b86028dd11610064578063b86028dd1461030e578063c69ed5f21461032e578063ce5171f31461034e578063e9bb6ceb1461036e578063f2fde38b1461038e57600080fd5b80638456cb59146102815780638da5cb5b146102965780638f4fde9f146102ce578063a526d83b146102ee57600080fd5b80634884ef74116100dc5780634884ef74146101d057806356d8b85e146101f05780635c975abb14610214578063642f2eaf1461022e578063714041561461026157600080fd5b80630633b14a146101195780630ef28ed51461015e5780631c6f2ae2146101995780633f4ba83a146101bb57600080fd5b3661011457005b600080fd5b34801561012557600080fd5b50610149610134366004610fca565b60046020526000908152604090205460ff1681565b60405190151581526020015b60405180910390f35b34801561016a57600080fd5b50610149610179366004610fec565b600660209081526000928352604080842090915290825290205460ff1681565b3480156101a557600080fd5b506101b96101b4366004611018565b6103ae565b005b3480156101c757600080fd5b506101b961043f565b3480156101dc57600080fd5b506101b96101eb366004611018565b6104a1565b3480156101fc57600080fd5b5061020660025481565b604051908152602001610155565b34801561022057600080fd5b506003546101499060ff1681565b34801561023a57600080fd5b5061024e610249366004611018565b610593565b6040516101559796959493929190611055565b34801561026d57600080fd5b506101b961027c366004610fca565b610668565b34801561028d57600080fd5b506101b9610715565b3480156102a257600080fd5b506000546102b6906001600160a01b031681565b6040516001600160a01b039091168152602001610155565b3480156102da57600080fd5b506101b96102e9366004611018565b61077a565b3480156102fa57600080fd5b506101b9610309366004610fca565b610918565b34801561031a57600080fd5b506101b9610329366004610fca565b6109c9565b34801561033a57600080fd5b506101b9610349366004611018565b610ab2565b34801561035a57600080fd5b506102066103693660046110bc565b610c5e565b34801561037a57600080fd5b506001546102b6906001600160a01b031681565b34801561039a57600080fd5b506101b96103a9366004610fca565b610ed1565b6000546001600160a01b031633146103d957604051632e6c18c960e11b815260040160405180910390fd5b806000036103fa5760405163aabd5a0960e01b815260040160405180910390fd5b600280549082905560408051828152602081018490527fb06a54caabe58475c86c2bf9df3f2f06dd1213e9e10659c293117fe4893b274b910160405180910390a15050565b6000546001600160a01b0316331461046a57604051632e6c18c960e11b815260040160405180910390fd5b6003805460ff1916905560405133907ff5cbf596165cc457b2cd92e8d8450827ee314968160a5696402d75766fc52caf90600090a2565b6000546001600160a01b031633146104cc57604051632e6c18c960e11b815260040160405180910390fd5b60035460ff16156104f05760405163ab35696f60e01b815260040160405180910390fd5b60008181526005602081905260409091209081015460ff16156105265760405163db5e659b60e01b815260040160405180910390fd5b6005810154610100900460ff16156105515760405163131ee86760e31b815260040160405180910390fd5b60058101805461ff001916610100179055604051339083907fcd6f9c1d6b55066885c9a950c67177237653ed40c8f1acb1529b5af23775c13e90600090a35050565b6005602052600090815260409020805460018201546002830180546001600160a01b039093169391926105c59061114b565b80601f01602080910402602001604051908101604052809291908181526020018280546105f19061114b565b801561063e5780601f106106135761010080835404028352916020019161063e565b820191906000526020600020905b81548152906001019060200180831161062157829003601f168201915b50505050600383015460048401546005909401549293909290915060ff8082169161010090041687565b6000546001600160a01b0316331461069357604051632e6c18c960e11b815260040160405180910390fd5b6001600160a01b03811660009081526004602052604090205460ff166106cc57604051630ccefe7960e31b815260040160405180910390fd5b6001600160a01b038116600081815260046020526040808220805460ff19169055517fb8107d0c6b40be480ce3172ee66ba6d64b71f6b1685a851340036e6e2e3e3c529190a250565b6000546001600160a01b0316331461074057604051632e6c18c960e11b815260040160405180910390fd5b6003805460ff1916600117905560405133907fb8fad2fa0ed7a383e747c309ef2c4391d7b65592a48893e57ccc1fab7079145690600090a2565b3360009081526004602052604090205460ff166107aa5760405163bcee6f9b60e01b815260040160405180910390fd5b60035460ff16156107ce5760405163ab35696f60e01b815260040160405180910390fd5b60008181526005602052604081206004810154909103610801576040516315147c4560e21b815260040160405180910390fd5b80600401544210156108265760405163621e25c360e01b815260040160405180910390fd5b600581015460ff161561084c5760405163db5e659b60e01b815260040160405180910390fd5b6005810154610100900460ff16156108775760405163131ee86760e31b815260040160405180910390fd5b600082815260066020908152604080832033845290915290205460ff16156108b25760405163f6b3aa6560e01b815260040160405180910390fd5b6003810180549060006108c48361119b565b90915550506000828152600660209081526040808320338085529252808320805460ff191660011790555184927f7115b98931e7aca6d0aa11d10fe28877316a661a44c4bfc93c76b19dbbf5b10791a35050565b6000546001600160a01b0316331461094357604051632e6c18c960e11b815260040160405180910390fd5b6001600160a01b03811660009081526004602052604090205460ff161561097d5760405163fecca77f60e01b815260040160405180910390fd5b6001600160a01b038116600081815260046020526040808220805460ff19166001179055517f038596bb31e2e7d3d9f184d4c98b310103f6d7f5830e5eec32bffe6f1728f9699190a250565b6000546001600160a01b031633146109f457604051632e6c18c960e11b815260040160405180910390fd5b6001600160a01b038116610a5057604051630b0f5aa160e11b815260206004820152601d60248201527f436f6e74726f6c6c6572206164647265737320697320696e76616c696400000060448201526064015b60405180910390fd5b60015460405163e8ea054b60e01b81526001600160a01b0383811660048301529091169063e8ea054b90602401600060405180830381600087803b158015610a9757600080fd5b505af1158015610aab573d6000803e3d6000fd5b5050505050565b6000546001600160a01b03163314610add57604051632e6c18c960e11b815260040160405180910390fd5b60035460ff1615610b015760405163ab35696f60e01b815260040160405180910390fd5b600081815260056020526040902060025460038201541015610b4757600254600382015460405163443282f560e01b815260048101929092526024820152604401610a47565b600581015460ff1615610b6d5760405163db5e659b60e01b815260040160405180910390fd5b6005810154610100900460ff1615610b985760405163131ee86760e31b815260040160405180910390fd5b60058101805460ff191660019081179091558054825491830154604051635b0e93fb60e11b81526001600160a01b039283169363b61d27f693610be59391169160028701906004016111b4565b6000604051808303816000875af1158015610c04573d6000803e3d6000fd5b505050506040513d6000823e601f3d908101601f19168201604052610c2c919081019061126c565b50604051339083907fd44017dbb47d3ccb9e2b2348a386b3faf150406ac63038abd5533ce95dbcc47190600090a35050565b600080546001600160a01b03163314610c8a57604051632e6c18c960e11b815260040160405180910390fd5b60035460ff1615610cae5760405163ab35696f60e01b815260040160405180910390fd5b6001600160a01b038616610d0557604051630b0f5aa160e11b815260206004820152601960248201527f546172676574206164647265737320697320696e76616c6964000000000000006044820152606401610a47565b60008686868642604051602001610d20959493929190611319565b60408051601f1981840301815291815281516020928301206000818152600590935291206004015490915015610d69576040516324b546fd60e11b815260040160405180910390fd5b6040518060e00160405280886001600160a01b0316815260200187815260200186868080601f01602080910402602001604051908101604052809392919081815260200183838082843760009201829052509385525050506020820152604001610dd3854261136b565b81526000602080830182905260409283018290528482526005815290829020835181546001600160a01b0319166001600160a01b03909116178155908301516001820155908201516002820190610e2a90826113d3565b5060608201516003820155608082015160048083019190915560a08301516005928301805460c09095015115156101000261ff00199215159290921661ffff1990951694909417179092556000838152602091909152604090819020909101549051339183917f533ba22d28f3a0560c2fa1bd59fc6061ceb8f3d2ce56b1355ce47fc4fdd10a4291610ebf9190815260200190565b60405180910390a39695505050505050565b6000546001600160a01b03163314610efc57604051632e6c18c960e11b815260040160405180910390fd5b6001600160a01b038116610f5357604051630b0f5aa160e11b815260206004820152601c60248201527f4e6577206f776e6572206164647265737320697320696e76616c6964000000006044820152606401610a47565b600080546040516001600160a01b03808516939216917fb532073b38c83145e3e5135377a08bf9aab55bc0fd7c1179cd4fb995d2a5159c91a3600080546001600160a01b0319166001600160a01b0392909216919091179055565b80356001600160a01b0381168114610fc557600080fd5b919050565b600060208284031215610fdc57600080fd5b610fe582610fae565b9392505050565b60008060408385031215610fff57600080fd5b8235915061100f60208401610fae565b90509250929050565b60006020828403121561102a57600080fd5b5035919050565b60005b8381101561104c578181015183820152602001611034565b50506000910152565b60018060a01b038816815286602082015260e06040820152600086518060e084015261010061108a8282860160208c01611031565b606084019790975260808301959095525091151560a0830152151560c0820152601f909101601f191601019392505050565b6000806000806000608086880312156110d457600080fd5b6110dd86610fae565b945060208601359350604086013567ffffffffffffffff8082111561110157600080fd5b818801915088601f83011261111557600080fd5b81358181111561112457600080fd5b89602082850101111561113657600080fd5b96999598505060200195606001359392505050565b600181811c9082168061115f57607f821691505b60208210810361117f57634e487b7160e01b600052602260045260246000fd5b50919050565b634e487b7160e01b600052601160045260246000fd5b6000600182016111ad576111ad611185565b5060010190565b60018060a01b038416815260006020848184015260606040840152600084546111dc8161114b565b80606087015260806001808416600081146111fe576001811461121857611246565b60ff1985168984015283151560051b890183019550611246565b896000528660002060005b8581101561123e5781548b8201860152908301908801611223565b8a0184019650505b50939a9950505050505050505050565b634e487b7160e01b600052604160045260246000fd5b60006020828403121561127e57600080fd5b815167ffffffffffffffff8082111561129657600080fd5b818401915084601f8301126112aa57600080fd5b8151818111156112bc576112bc611256565b604051601f8201601f19908116603f011681019083821181831017156112e4576112e4611256565b816040528281528760208487010111156112fd57600080fd5b61130e836020830160208801611031565b979650505050505050565b6001600160a01b0386168152602081018590526080604082018190528101839052828460a0830137600060a08483010152600060a0601f19601f86011683010190508260608301529695505050505050565b8082018082111561137e5761137e611185565b92915050565b601f8211156113ce57600081815260208120601f850160051c810160208610156113ab5750805b601f850160051c820191505b818110156113ca578281556001016113b7565b5050505b505050565b815167ffffffffffffffff8111156113ed576113ed611256565b611401816113fb845461114b565b84611384565b602080601f831160018114611436576000841561141e5750858301515b600019600386901b1c1916600185901b1785556113ca565b600085815260208120601f198616915b8281101561146557888601518255948401946001909101908401611446565b50858210156114835787850151600019600388901b60f8161c191681555b5050505050600190811b0190555056fea264697066735822122048a710bb0153211416df4f7a26ddb9867562e9585b428a6fd825bb9dec2cfa8264736f6c63430008140033",
  "linkReferences": {},
  "deployedLinkReferences": {}
}