{
  "_format": "hh-sol-artifact-1",
  "contractName": "AdvancedSafeWithTokenbound",
  "sourceName": "contracts/guardian.sol",
  "abi": [
    {
      "inputs": [
        {
          "internalType": "address",
          "name": "_owner",
          "type": "address"
        },
        {
          "internalType": "address",
          "name": "_tokenBoundAccount",
          "type": "address"
        },
        {
          "internalType": "uint256",
          "name": "_guardianApprovalThreshold",
          "type": "uint256"
        }
      ],
      "stateMutability": "nonpayable",
      "type": "constructor"
    },
    {
      "inputs": [],
      "name": "CallerNotGuardian",
      "type": "error"
    },
    {
      "inputs": [],
      "name": "CallerNotOwner",
      "type": "error"
    },
    {
      "inputs": [],
      "name": "ContractPaused",
      "type": "error"
    },
    {
      "inputs": [],
      "name": "GuardianAlreadyApproved",
      "type": "error"
    },
    {
      "inputs": [],
      "name": "GuardianAlreadyExists",
      "type": "error"
    },
    {
      "inputs": [],
      "name": "GuardianDoesNotExist",
      "type": "error"
    },
    {
      "inputs": [
        {
          "internalType": "string",
          "name": "message",
          "type": "string"
        }
      ],
      "name": "InvalidAddress",
      "type": "error"
    },
    {
      "inputs": [],
      "name": "InvalidThreshold",
      "type": "error"
    },
    {
      "inputs": [
        {
          "internalType": "uint256",
          "name": "required",
          "type": "uint256"
        },
        {
          "internalType": "uint256",
          "name": "actual",
          "type": "uint256"
        }
      ],
      "name": "NotEnoughApprovals",
      "type": "error"
    },
    {
      "inputs": [],
      "name": "TimelockNotExpired",
      "type": "error"
    },
    {
      "inputs": [],
      "name": "TransactionAlreadyExecuted",
      "type": "error"
    },
    {
      "inputs": [],
      "name": "TransactionAlreadyProposed",
      "type": "error"
    },
    {
      "inputs": [],
      "name": "TransactionDoesNotExist",
      "type": "error"
    },
    {
      "inputs": [],
      "name": "TransactionRevoke",
      "type": "error"
    },
    {
      "anonymous": false,
      "inputs": [
        {
          "indexed": true,
          "internalType": "address",
          "name": "initiator",
          "type": "address"
        }
      ],
      "name": "EmergencyPaused",
      "type": "event"
    },
    {
      "anonymous": false,
      "inputs": [
        {
          "indexed": true,
          "internalType": "address",
          "name": "initiator",
          "type": "address"
        }
      ],
      "name": "EmergencyUnpaused",
      "type": "event"
    },
    {
      "anonymous": false,
      "inputs": [
        {
          "indexed": true,
          "internalType": "address",
          "name": "guardian",
          "type": "address"
        }
      ],
      "name": "GuardianAdded",
      "type": "event"
    },
    {
      "anonymous": false,
      "inputs": [
        {
          "indexed": true,
          "internalType": "address",
          "name": "guardian",
          "type": "address"
        }
      ],
      "name": "GuardianRemoved",
      "type": "event"
    },
    {
      "anonymous": false,
      "inputs": [
        {
          "indexed": true,
          "internalType": "address",
          "name": "oldOwner",
          "type": "address"
        },
        {
          "indexed": true,
          "internalType": "address",
          "name": "newOwner",
          "type": "address"
        }
      ],
      "name": "OwnerChanged",
      "type": "event"
    },
    {
      "anonymous": false,
      "inputs": [
        {
          "indexed": false,
          "internalType": "uint256",
          "name": "oldThreshold",
          "type": "uint256"
        },
        {
          "indexed": false,
          "internalType": "uint256",
          "name": "newThreshold",
          "type": "uint256"
        }
      ],
      "name": "ThresholdUpdated",
      "type": "event"
    },
    {
      "anonymous": false,
      "inputs": [
        {
          "indexed": true,
          "internalType": "address",
          "name": "guardian",
          "type": "address"
        },
        {
          "indexed": true,
          "internalType": "bytes32",
          "name": "txHash",
          "type": "bytes32"
        }
      ],
      "name": "TransactionApproved",
      "type": "event"
    },
    {
      "anonymous": false,
      "inputs": [
        {
          "indexed": true,
          "internalType": "bytes32",
          "name": "txHash",
          "type": "bytes32"
        },
        {
          "indexed": true,
          "internalType": "address",
          "name": "executor",
          "type": "address"
        }
      ],
      "name": "TransactionExecuted",
      "type": "event"
    },
    {
      "anonymous": false,
      "inputs": [
        {
          "indexed": true,
          "internalType": "bytes32",
          "name": "txHash",
          "type": "bytes32"
        },
        {
          "indexed": true,
          "internalType": "address",
          "name": "proposer",
          "type": "address"
        },
        {
          "indexed": false,
          "internalType": "uint256",
          "name": "unlockTime",
          "type": "uint256"
        }
      ],
      "name": "TransactionProposed",
      "type": "event"
    },
    {
      "anonymous": false,
      "inputs": [
        {
          "indexed": true,
          "internalType": "bytes32",
          "name": "txHash",
          "type": "bytes32"
        },
        {
          "indexed": true,
          "internalType": "address",
          "name": "revoker",
          "type": "address"
        }
      ],
      "name": "TransactionRevoked",
      "type": "event"
    },
    {
      "inputs": [
        {
          "internalType": "address",
          "name": "guardian",
          "type": "address"
        }
      ],
      "name": "addGuardian",
      "outputs": [],
      "stateMutability": "nonpayable",
      "type": "function"
    },
    {
      "inputs": [
        {
          "internalType": "bytes32",
          "name": "txHash",
          "type": "bytes32"
        }
      ],
      "name": "approveTransaction",
      "outputs": [],
      "stateMutability": "nonpayable",
      "type": "function"
    },
    {
      "inputs": [
        {
          "internalType": "bytes32",
          "name": "txHash",
          "type": "bytes32"
        }
      ],
      "name": "executeTransaction",
      "outputs": [],
      "stateMutability": "nonpayable",
      "type": "function"
    },
    {
      "inputs": [],
      "name": "guardianApprovalThreshold",
      "outputs": [
        {
          "internalType": "uint256",
          "name": "",
          "type": "uint256"
        }
      ],
      "stateMutability": "view",
      "type": "function"
    },
    {
      "inputs": [
        {
          "internalType": "address",
          "name": "",
          "type": "address"
        }
      ],
      "name": "guardians",
      "outputs": [
        {
          "internalType": "bool",
          "name": "",
          "type": "bool"
        }
      ],
      "stateMutability": "view",
      "type": "function"
    },
    {
      "inputs": [],
      "name": "owner",
      "outputs": [
        {
          "internalType": "address",
          "name": "",
          "type": "address"
        }
      ],
      "stateMutability": "view",
      "type": "function"
    },
    {
      "inputs": [],
      "name": "pause",
      "outputs": [],
      "stateMutability": "nonpayable",
      "type": "function"
    },
    {
      "inputs": [],
      "name": "paused",
      "outputs": [
        {
          "internalType": "bool",
          "name": "",
          "type": "bool"
        }
      ],
      "stateMutability": "view",
      "type": "function"
    },
    {
      "inputs": [
        {
          "internalType": "address",
          "name": "target",
          "type": "address"
        },
        {
          "internalType": "uint256",
          "name": "value",
          "type": "uint256"
        },
        {
          "internalType": "bytes",
          "name": "data",
          "type": "bytes"
        },
        {
          "internalType": "uint256",
          "name": "timelockDuration",
          "type": "uint256"
        }
      ],
      "name": "proposeTransaction",
      "outputs": [
        {
          "internalType": "bytes32",
          "name": "",
          "type": "bytes32"
        }
      ],
      "stateMutability": "nonpayable",
      "type": "function"
    },
    {
      "inputs": [
        {
          "internalType": "address",
          "name": "guardian",
          "type": "address"
        }
      ],
      "name": "removeGuardian",
      "outputs": [],
      "stateMutability": "nonpayable",
      "type": "function"
    },
    {
      "inputs": [
        {
          "internalType": "bytes32",
          "name": "txHash",
          "type": "bytes32"
        }
      ],
      "name": "revokeTransaction",
      "outputs": [],
      "stateMutability": "nonpayable",
      "type": "function"
    },
    {
      "inputs": [],
      "name": "tokenBoundAccount",
      "outputs": [
        {
          "internalType": "address",
          "name": "",
          "type": "address"
        }
      ],
      "stateMutability": "view",
      "type": "function"
    },
    {
      "inputs": [
        {
          "internalType": "bytes32",
          "name": "",
          "type": "bytes32"
        },
        {
          "internalType": "address",
          "name": "",
          "type": "address"
        }
      ],
      "name": "transactionApprovals",
      "outputs": [
        {
          "internalType": "bool",
          "name": "",
          "type": "bool"
        }
      ],
      "stateMutability": "view",
      "type": "function"
    },
    {
      "inputs": [
        {
          "internalType": "bytes32",
          "name": "",
          "type": "bytes32"
        }
      ],
      "name": "transactions",
      "outputs": [
        {
          "internalType": "address",
          "name": "target",
          "type": "address"
        },
        {
          "internalType": "uint256",
          "name": "value",
          "type": "uint256"
        },
        {
          "internalType": "bytes",
          "name": "data",
          "type": "bytes"
        },
        {
          "internalType": "uint256",
          "name": "approvals",
          "type": "uint256"
        },
        {
          "internalType": "uint256",
          "name": "unlockTime",
          "type": "uint256"
        },
        {
          "internalType": "bool",
          "name": "executed",
          "type": "bool"
        },
        {
          "internalType": "bool",
          "name": "revoked",
          "type": "bool"
        }
      ],
      "stateMutability": "view",
      "type": "function"
    },
    {
      "inputs": [
        {
          "internalType": "address",
          "name": "newOwner",
          "type": "address"
        }
      ],
      "name": "transferOwnership",
      "outputs": [],
      "stateMutability": "nonpayable",
      "type": "function"
    },
    {
      "inputs": [
        {
          "internalType": "address",
          "name": "newController",
          "type": "address"
        }
      ],
      "name": "transferTokenboundController",
      "outputs": [],
      "stateMutability": "nonpayable",
      "type": "function"
    },
    {
      "inputs": [],
      "name": "unpause",
      "outputs": [],
      "stateMutability": "nonpayable",
      "type": "function"
    },
    {
      "inputs": [
        {
          "internalType": "uint256",
          "name": "newThreshold",
          "type": "uint256"
        }
      ],
      "name": "updateApprovalThreshold",
      "outputs": [],
      "stateMutability": "nonpayable",
      "type": "function"
    },
    {
      "stateMutability": "payable",
      "type": "receive"
    }
  ],
  "bytecode": "0x60806040523480156200001157600080fd5b5060405162002a7a38038062002a7a833981810160405281019062000037919062000218565b600073ffffffffffffffffffffffffffffffffffffffff168373ffffffffffffffffffffffffffffffffffffffff1614806200009f5750600073ffffffffffffffffffffffffffffffffffffffff168273ffffffffffffffffffffffffffffffffffffffff16145b15620000e2576040517f161eb542000000000000000000000000000000000000000000000000000000008152600401620000d990620002fb565b60405180910390fd5b826000806101000a81548173ffffffffffffffffffffffffffffffffffffffff021916908373ffffffffffffffffffffffffffffffffffffffff16021790555081600160006101000a81548173ffffffffffffffffffffffffffffffffffffffff021916908373ffffffffffffffffffffffffffffffffffffffff160217905550806002819055505050506200031d565b600080fd5b600073ffffffffffffffffffffffffffffffffffffffff82169050919050565b6000620001a58262000178565b9050919050565b620001b78162000198565b8114620001c357600080fd5b50565b600081519050620001d781620001ac565b92915050565b6000819050919050565b620001f281620001dd565b8114620001fe57600080fd5b50565b6000815190506200021281620001e7565b92915050565b60008060006060848603121562000234576200023362000173565b5b60006200024486828701620001c6565b93505060206200025786828701620001c6565b92505060406200026a8682870162000201565b9150509250925092565b600082825260208201905092915050565b7f4f776e6572206f7220546f6b656e626f756e64206163636f756e74206164647260008201527f65737320697320696e76616c6964000000000000000000000000000000000000602082015250565b6000620002e3602e8362000274565b9150620002f08262000285565b604082019050919050565b600060208201905081810360008301526200031681620002d4565b9050919050565b61274d806200032d6000396000f3fe60806040526004361061010d5760003560e01c80638456cb5911610095578063b86028dd11610064578063b86028dd14610352578063c69ed5f21461037b578063ce5171f3146103a4578063e9bb6ceb146103e1578063f2fde38b1461040c57610114565b80638456cb59146102be5780638da5cb5b146102d55780638f4fde9f14610300578063a526d83b1461032957610114565b80634884ef74116100dc5780634884ef74146101d357806356d8b85e146101fc5780635c975abb14610227578063642f2eaf14610252578063714041561461029557610114565b80630633b14a146101195780630ef28ed5146101565780631c6f2ae2146101935780633f4ba83a146101bc57610114565b3661011457005b600080fd5b34801561012557600080fd5b50610140600480360381019061013b9190611b80565b610435565b60405161014d9190611bc8565b60405180910390f35b34801561016257600080fd5b5061017d60048036038101906101789190611c19565b610455565b60405161018a9190611bc8565b60405180910390f35b34801561019f57600080fd5b506101ba60048036038101906101b59190611c8f565b610484565b005b3480156101c857600080fd5b506101d161058e565b005b3480156101df57600080fd5b506101fa60048036038101906101f59190611cbc565b610673565b005b34801561020857600080fd5b5061021161084d565b60405161021e9190611cf8565b60405180910390f35b34801561023357600080fd5b5061023c610853565b6040516102499190611bc8565b60405180910390f35b34801561025e57600080fd5b5061027960048036038101906102749190611cbc565b610866565b60405161028c9796959493929190611db2565b60405180910390f35b3480156102a157600080fd5b506102bc60048036038101906102b79190611b80565b61096a565b005b3480156102ca57600080fd5b506102d3610b10565b005b3480156102e157600080fd5b506102ea610bf5565b6040516102f79190611e28565b60405180910390f35b34801561030c57600080fd5b5061032760048036038101906103229190611cbc565b610c19565b005b34801561033557600080fd5b50610350600480360381019061034b9190611b80565b610f68565b005b34801561035e57600080fd5b5061037960048036038101906103749190611b80565b61110f565b005b34801561038757600080fd5b506103a2600480360381019061039d9190611cbc565b611293565b005b3480156103b057600080fd5b506103cb60048036038101906103c69190611ea8565b611593565b6040516103d89190611f3f565b60405180910390f35b3480156103ed57600080fd5b506103f6611937565b6040516104039190611e28565b60405180910390f35b34801561041857600080fd5b50610433600480360381019061042e9190611b80565b61195d565b005b60046020528060005260406000206000915054906101000a900460ff1681565b60066020528160005260406000206020528060005260406000206000915091509054906101000a900460ff1681565b60008054906101000a900473ffffffffffffffffffffffffffffffffffffffff1673ffffffffffffffffffffffffffffffffffffffff163373ffffffffffffffffffffffffffffffffffffffff1614610509576040517f5cd8319200000000000000000000000000000000000000000000000000000000815260040160405180910390fd5b60008103610543576040517faabd5a0900000000000000000000000000000000000000000000000000000000815260040160405180910390fd5b60006002549050816002819055507fb06a54caabe58475c86c2bf9df3f2f06dd1213e9e10659c293117fe4893b274b8183604051610582929190611f5a565b60405180910390a15050565b60008054906101000a900473ffffffffffffffffffffffffffffffffffffffff1673ffffffffffffffffffffffffffffffffffffffff163373ffffffffffffffffffffffffffffffffffffffff1614610613576040517f5cd8319200000000000000000000000000000000000000000000000000000000815260040160405180910390fd5b6000600360006101000a81548160ff0219169083151502179055503373ffffffffffffffffffffffffffffffffffffffff167ff5cbf596165cc457b2cd92e8d8450827ee314968160a5696402d75766fc52caf60405160405180910390a2565b60008054906101000a900473ffffffffffffffffffffffffffffffffffffffff1673ffffffffffffffffffffffffffffffffffffffff163373ffffffffffffffffffffffffffffffffffffffff16146106f8576040517f5cd8319200000000000000000000000000000000000000000000000000000000815260040160405180910390fd5b600360009054906101000a900460ff161561073f576040517fab35696f00000000000000000000000000000000000000000000000000000000815260040160405180910390fd5b60006005600083815260200190815260200160002090508060050160009054906101000a900460ff161561079f576040517fdb5e659b00000000000000000000000000000000000000000000000000000000815260040160405180910390fd5b8060050160019054906101000a900460ff16156107e8576040517f98f7433800000000000000000000000000000000000000000000000000000000815260040160405180910390fd5b60018160050160016101000a81548160ff0219169083151502179055503373ffffffffffffffffffffffffffffffffffffffff16827fcd6f9c1d6b55066885c9a950c67177237653ed40c8f1acb1529b5af23775c13e60405160405180910390a35050565b60025481565b600360009054906101000a900460ff1681565b60056020528060005260406000206000915090508060000160009054906101000a900473ffffffffffffffffffffffffffffffffffffffff16908060010154908060020180546108b590611fb2565b80601f01602080910402602001604051908101604052809291908181526020018280546108e190611fb2565b801561092e5780601f106109035761010080835404028352916020019161092e565b820191906000526020600020905b81548152906001019060200180831161091157829003601f168201915b5050505050908060030154908060040154908060050160009054906101000a900460ff16908060050160019054906101000a900460ff16905087565b60008054906101000a900473ffffffffffffffffffffffffffffffffffffffff1673ffffffffffffffffffffffffffffffffffffffff163373ffffffffffffffffffffffffffffffffffffffff16146109ef576040517f5cd8319200000000000000000000000000000000000000000000000000000000815260040160405180910390fd5b600460008273ffffffffffffffffffffffffffffffffffffffff1673ffffffffffffffffffffffffffffffffffffffff16815260200190815260200160002060009054906101000a900460ff16610a72576040517f6677f3c800000000000000000000000000000000000000000000000000000000815260040160405180910390fd5b6000600460008373ffffffffffffffffffffffffffffffffffffffff1673ffffffffffffffffffffffffffffffffffffffff16815260200190815260200160002060006101000a81548160ff0219169083151502179055508073ffffffffffffffffffffffffffffffffffffffff167fb8107d0c6b40be480ce3172ee66ba6d64b71f6b1685a851340036e6e2e3e3c5260405160405180910390a250565b60008054906101000a900473ffffffffffffffffffffffffffffffffffffffff1673ffffffffffffffffffffffffffffffffffffffff163373ffffffffffffffffffffffffffffffffffffffff1614610b95576040517f5cd8319200000000000000000000000000000000000000000000000000000000815260040160405180910390fd5b6001600360006101000a81548160ff0219169083151502179055503373ffffffffffffffffffffffffffffffffffffffff167fb8fad2fa0ed7a383e747c309ef2c4391d7b65592a48893e57ccc1fab7079145660405160405180910390a2565b60008054906101000a900473ffffffffffffffffffffffffffffffffffffffff1681565b600460003373ffffffffffffffffffffffffffffffffffffffff1673ffffffffffffffffffffffffffffffffffffffff16815260200190815260200160002060009054906101000a900460ff16610c9c576040517fbcee6f9b00000000000000000000000000000000000000000000000000000000815260040160405180910390fd5b600360009054906101000a900460ff1615610ce3576040517fab35696f00000000000000000000000000000000000000000000000000000000815260040160405180910390fd5b60006005600083815260200190815260200160002090506000816004015403610d38576040517f5451f11400000000000000000000000000000000000000000000000000000000815260040160405180910390fd5b8060040154421015610d76576040517f621e25c300000000000000000000000000000000000000000000000000000000815260040160405180910390fd5b8060050160009054906101000a900460ff1615610dbf576040517fdb5e659b00000000000000000000000000000000000000000000000000000000815260040160405180910390fd5b8060050160019054906101000a900460ff1615610e08576040517f98f7433800000000000000000000000000000000000000000000000000000000815260040160405180910390fd5b6006600083815260200190815260200160002060003373ffffffffffffffffffffffffffffffffffffffff1673ffffffffffffffffffffffffffffffffffffffff16815260200190815260200160002060009054906101000a900460ff1615610e9d576040517ff6b3aa6500000000000000000000000000000000000000000000000000000000815260040160405180910390fd5b806003016000815480929190610eb290612012565b919050555060016006600084815260200190815260200160002060003373ffffffffffffffffffffffffffffffffffffffff1673ffffffffffffffffffffffffffffffffffffffff16815260200190815260200160002060006101000a81548160ff021916908315150217905550813373ffffffffffffffffffffffffffffffffffffffff167f7115b98931e7aca6d0aa11d10fe28877316a661a44c4bfc93c76b19dbbf5b10760405160405180910390a35050565b60008054906101000a900473ffffffffffffffffffffffffffffffffffffffff1673ffffffffffffffffffffffffffffffffffffffff163373ffffffffffffffffffffffffffffffffffffffff1614610fed576040517f5cd8319200000000000000000000000000000000000000000000000000000000815260040160405180910390fd5b600460008273ffffffffffffffffffffffffffffffffffffffff1673ffffffffffffffffffffffffffffffffffffffff16815260200190815260200160002060009054906101000a900460ff1615611071576040517ffecca77f00000000000000000000000000000000000000000000000000000000815260040160405180910390fd5b6001600460008373ffffffffffffffffffffffffffffffffffffffff1673ffffffffffffffffffffffffffffffffffffffff16815260200190815260200160002060006101000a81548160ff0219169083151502179055508073ffffffffffffffffffffffffffffffffffffffff167f038596bb31e2e7d3d9f184d4c98b310103f6d7f5830e5eec32bffe6f1728f96960405160405180910390a250565b60008054906101000a900473ffffffffffffffffffffffffffffffffffffffff1673ffffffffffffffffffffffffffffffffffffffff163373ffffffffffffffffffffffffffffffffffffffff1614611194576040517f5cd8319200000000000000000000000000000000000000000000000000000000815260040160405180910390fd5b600073ffffffffffffffffffffffffffffffffffffffff168173ffffffffffffffffffffffffffffffffffffffff1603611203576040517f161eb5420000000000000000000000000000000000000000000000000000000081526004016111fa906120b7565b60405180910390fd5b600160009054906101000a900473ffffffffffffffffffffffffffffffffffffffff1673ffffffffffffffffffffffffffffffffffffffff1663e8ea054b826040518263ffffffff1660e01b815260040161125e9190611e28565b600060405180830381600087803b15801561127857600080fd5b505af115801561128c573d6000803e3d6000fd5b5050505050565b60008054906101000a900473ffffffffffffffffffffffffffffffffffffffff1673ffffffffffffffffffffffffffffffffffffffff163373ffffffffffffffffffffffffffffffffffffffff1614611318576040517f5cd8319200000000000000000000000000000000000000000000000000000000815260040160405180910390fd5b600360009054906101000a900460ff161561135f576040517fab35696f00000000000000000000000000000000000000000000000000000000815260040160405180910390fd5b6000600560008381526020019081526020016000209050600254816003015410156113c95760025481600301546040517f443282f50000000000000000000000000000000000000000000000000000000081526004016113c0929190611f5a565b60405180910390fd5b8060050160009054906101000a900460ff1615611412576040517fdb5e659b00000000000000000000000000000000000000000000000000000000815260040160405180910390fd5b8060050160019054906101000a900460ff161561145b576040517f98f7433800000000000000000000000000000000000000000000000000000000815260040160405180910390fd5b60018160050160006101000a81548160ff021916908315150217905550600160009054906101000a900473ffffffffffffffffffffffffffffffffffffffff1673ffffffffffffffffffffffffffffffffffffffff1663b61d27f68260000160009054906101000a900473ffffffffffffffffffffffffffffffffffffffff168360010154846002016040518463ffffffff1660e01b815260040161150293929190612170565b6000604051808303816000875af1158015611521573d6000803e3d6000fd5b505050506040513d6000823e3d601f19601f8201168201806040525081019061154a91906122cf565b503373ffffffffffffffffffffffffffffffffffffffff16827fd44017dbb47d3ccb9e2b2348a386b3faf150406ac63038abd5533ce95dbcc47160405160405180910390a35050565b60008060009054906101000a900473ffffffffffffffffffffffffffffffffffffffff1673ffffffffffffffffffffffffffffffffffffffff163373ffffffffffffffffffffffffffffffffffffffff161461161b576040517f5cd8319200000000000000000000000000000000000000000000000000000000815260040160405180910390fd5b600360009054906101000a900460ff1615611662576040517fab35696f00000000000000000000000000000000000000000000000000000000815260040160405180910390fd5b600073ffffffffffffffffffffffffffffffffffffffff168673ffffffffffffffffffffffffffffffffffffffff16036116d1576040517f161eb5420000000000000000000000000000000000000000000000000000000081526004016116c890612364565b60405180910390fd5b600086868686426040516020016116ec9594939291906123c0565b604051602081830303815290604052805190602001209050600060056000838152602001908152602001600020600401541115611755576040517f496a8dfa00000000000000000000000000000000000000000000000000000000815260040160405180910390fd5b6040518060e001604052808873ffffffffffffffffffffffffffffffffffffffff16815260200187815260200186868080601f016020809104026020016040519081016040528093929190818152602001838380828437600081840152601f19601f8201169050808301925050505050505081526020016000815260200184426117df919061240e565b8152602001600015158152602001600015158152506005600083815260200190815260200160002060008201518160000160006101000a81548173ffffffffffffffffffffffffffffffffffffffff021916908373ffffffffffffffffffffffffffffffffffffffff16021790555060208201518160010155604082015181600201908161186d91906125d9565b50606082015181600301556080820151816004015560a08201518160050160006101000a81548160ff02191690831515021790555060c08201518160050160016101000a81548160ff0219169083151502179055509050503373ffffffffffffffffffffffffffffffffffffffff16817f533ba22d28f3a0560c2fa1bd59fc6061ceb8f3d2ce56b1355ce47fc4fdd10a4260056000858152602001908152602001600020600401546040516119229190611cf8565b60405180910390a38091505095945050505050565b600160009054906101000a900473ffffffffffffffffffffffffffffffffffffffff1681565b60008054906101000a900473ffffffffffffffffffffffffffffffffffffffff1673ffffffffffffffffffffffffffffffffffffffff163373ffffffffffffffffffffffffffffffffffffffff16146119e2576040517f5cd8319200000000000000000000000000000000000000000000000000000000815260040160405180910390fd5b600073ffffffffffffffffffffffffffffffffffffffff168173ffffffffffffffffffffffffffffffffffffffff1603611a51576040517f161eb542000000000000000000000000000000000000000000000000000000008152600401611a48906126f7565b60405180910390fd5b8073ffffffffffffffffffffffffffffffffffffffff1660008054906101000a900473ffffffffffffffffffffffffffffffffffffffff1673ffffffffffffffffffffffffffffffffffffffff167fb532073b38c83145e3e5135377a08bf9aab55bc0fd7c1179cd4fb995d2a5159c60405160405180910390a3806000806101000a81548173ffffffffffffffffffffffffffffffffffffffff021916908373ffffffffffffffffffffffffffffffffffffffff16021790555050565b6000604051905090565b600080fd5b600080fd5b600073ffffffffffffffffffffffffffffffffffffffff82169050919050565b6000611b4d82611b22565b9050919050565b611b5d81611b42565b8114611b6857600080fd5b50565b600081359050611b7a81611b54565b92915050565b600060208284031215611b9657611b95611b18565b5b6000611ba484828501611b6b565b91505092915050565b60008115159050919050565b611bc281611bad565b82525050565b6000602082019050611bdd6000830184611bb9565b92915050565b6000819050919050565b611bf681611be3565b8114611c0157600080fd5b50565b600081359050611c1381611bed565b92915050565b60008060408385031215611c3057611c2f611b18565b5b6000611c3e85828601611c04565b9250506020611c4f85828601611b6b565b9150509250929050565b6000819050919050565b611c6c81611c59565b8114611c7757600080fd5b50565b600081359050611c8981611c63565b92915050565b600060208284031215611ca557611ca4611b18565b5b6000611cb384828501611c7a565b91505092915050565b600060208284031215611cd257611cd1611b18565b5b6000611ce084828501611c04565b91505092915050565b611cf281611c59565b82525050565b6000602082019050611d0d6000830184611ce9565b92915050565b611d1c81611b42565b82525050565b600081519050919050565b600082825260208201905092915050565b60005b83811015611d5c578082015181840152602081019050611d41565b60008484015250505050565b6000601f19601f8301169050919050565b6000611d8482611d22565b611d8e8185611d2d565b9350611d9e818560208601611d3e565b611da781611d68565b840191505092915050565b600060e082019050611dc7600083018a611d13565b611dd46020830189611ce9565b8181036040830152611de68188611d79565b9050611df56060830187611ce9565b611e026080830186611ce9565b611e0f60a0830185611bb9565b611e1c60c0830184611bb9565b98975050505050505050565b6000602082019050611e3d6000830184611d13565b92915050565b600080fd5b600080fd5b600080fd5b60008083601f840112611e6857611e67611e43565b5b8235905067ffffffffffffffff811115611e8557611e84611e48565b5b602083019150836001820283011115611ea157611ea0611e4d565b5b9250929050565b600080600080600060808688031215611ec457611ec3611b18565b5b6000611ed288828901611b6b565b9550506020611ee388828901611c7a565b945050604086013567ffffffffffffffff811115611f0457611f03611b1d565b5b611f1088828901611e52565b93509350506060611f2388828901611c7a565b9150509295509295909350565b611f3981611be3565b82525050565b6000602082019050611f546000830184611f30565b92915050565b6000604082019050611f6f6000830185611ce9565b611f7c6020830184611ce9565b9392505050565b7f4e487b7100000000000000000000000000000000000000000000000000000000600052602260045260246000fd5b60006002820490506001821680611fca57607f821691505b602082108103611fdd57611fdc611f83565b5b50919050565b7f4e487b7100000000000000000000000000000000000000000000000000000000600052601160045260246000fd5b600061201d82611c59565b91507fffffffffffffffffffffffffffffffffffffffffffffffffffffffffffffffff820361204f5761204e611fe3565b5b600182019050919050565b600082825260208201905092915050565b7f436f6e74726f6c6c6572206164647265737320697320696e76616c6964000000600082015250565b60006120a1601d8361205a565b91506120ac8261206b565b602082019050919050565b600060208201905081810360008301526120d081612094565b9050919050565b60008190508160005260206000209050919050565b600081546120f981611fb2565b6121038186611d2d565b9450600182166000811461211e576001811461213457612167565b60ff198316865281151560200286019350612167565b61213d856120d7565b60005b8381101561215f57815481890152600182019150602081019050612140565b808801955050505b50505092915050565b60006060820190506121856000830186611d13565b6121926020830185611ce9565b81810360408301526121a481846120ec565b9050949350505050565b600080fd5b7f4e487b7100000000000000000000000000000000000000000000000000000000600052604160045260246000fd5b6121eb82611d68565b810181811067ffffffffffffffff8211171561220a576122096121b3565b5b80604052505050565b600061221d611b0e565b905061222982826121e2565b919050565b600067ffffffffffffffff821115612249576122486121b3565b5b61225282611d68565b9050602081019050919050565b600061227261226d8461222e565b612213565b90508281526020810184848401111561228e5761228d6121ae565b5b612299848285611d3e565b509392505050565b600082601f8301126122b6576122b5611e43565b5b81516122c684826020860161225f565b91505092915050565b6000602082840312156122e5576122e4611b18565b5b600082015167ffffffffffffffff81111561230357612302611b1d565b5b61230f848285016122a1565b91505092915050565b7f546172676574206164647265737320697320696e76616c696400000000000000600082015250565b600061234e60198361205a565b915061235982612318565b602082019050919050565b6000602082019050818103600083015261237d81612341565b9050919050565b82818337600083830152505050565b600061239f8385611d2d565b93506123ac838584612384565b6123b583611d68565b840190509392505050565b60006080820190506123d56000830188611d13565b6123e26020830187611ce9565b81810360408301526123f5818587612393565b90506124046060830184611ce9565b9695505050505050565b600061241982611c59565b915061242483611c59565b925082820190508082111561243c5761243b611fe3565b5b92915050565b60006020601f8301049050919050565b600082821b905092915050565b60006008830261248f7fffffffffffffffffffffffffffffffffffffffffffffffffffffffffffffffff82612452565b6124998683612452565b95508019841693508086168417925050509392505050565b6000819050919050565b60006124d66124d16124cc84611c59565b6124b1565b611c59565b9050919050565b6000819050919050565b6124f0836124bb565b6125046124fc826124dd565b84845461245f565b825550505050565b600090565b61251961250c565b6125248184846124e7565b505050565b5b818110156125485761253d600082612511565b60018101905061252a565b5050565b601f82111561258d5761255e816120d7565b61256784612442565b81016020851015612576578190505b61258a61258285612442565b830182612529565b50505b505050565b600082821c905092915050565b60006125b060001984600802612592565b1980831691505092915050565b60006125c9838361259f565b9150826002028217905092915050565b6125e282611d22565b67ffffffffffffffff8111156125fb576125fa6121b3565b5b6126058254611fb2565b61261082828561254c565b600060209050601f8311600181146126435760008415612631578287015190505b61263b85826125bd565b8655506126a3565b601f198416612651866120d7565b60005b8281101561267957848901518255600182019150602085019450602081019050612654565b868310156126965784890151612692601f89168261259f565b8355505b6001600288020188555050505b505050505050565b7f4e6577206f776e6572206164647265737320697320696e76616c696400000000600082015250565b60006126e1601c8361205a565b91506126ec826126ab565b602082019050919050565b60006020820190508181036000830152612710816126d4565b905091905056fea2646970667358221220e6660217c66670c71c1f7e798d0b1618afae2c57216d21ce528f29a181e1df1964736f6c63430008140033",
  "linkReferences": {},
  "deployedLinkReferences": {}
}