{
  "_format": "hh-sol-artifact-1",
  "contractName": "MultiSigWallet",
  "sourceName": "contracts/MultiSignature.sol",
  "abi": [
    {
      "inputs": [
        {
          "internalType": "address[]",
          "name": "_owners",
          "type": "address[]"
        },
        {
          "internalType": "uint256",
          "name": "_threshold",
          "type": "uint256"
        }
      ],
      "stateMutability": "nonpayable",
      "type": "constructor"
    },
    {
      "inputs": [],
      "name": "InvalidOwnerAddress",
      "type": "error"
    },
    {
      "inputs": [],
      "name": "InvalidThreshold",
      "type": "error"
    },
    {
      "inputs": [],
      "name": "NotAnOwner",
      "type": "error"
    },
    {
      "inputs": [],
      "name": "NotEnoughConfirmations",
      "type": "error"
    },
    {
      "inputs": [
        {
          "internalType": "address",
          "name": "owner",
          "type": "address"
        }
      ],
      "name": "OwnableInvalidOwner",
      "type": "error"
    },
    {
      "inputs": [
        {
          "internalType": "address",
          "name": "account",
          "type": "address"
        }
      ],
      "name": "OwnableUnauthorizedAccount",
      "type": "error"
    },
    {
      "inputs": [],
      "name": "OwnerNotUnique",
      "type": "error"
    },
    {
      "inputs": [],
      "name": "TransactionAlreadyConfirmed",
      "type": "error"
    },
    {
      "inputs": [],
      "name": "TransactionAlreadyExecuted",
      "type": "error"
    },
    {
      "inputs": [],
      "name": "TransactionDoesNotExist",
      "type": "error"
    },
    {
      "inputs": [],
      "name": "TransactionFailed",
      "type": "error"
    },
    {
      "anonymous": false,
      "inputs": [
        {
          "indexed": true,
          "internalType": "address",
          "name": "sender",
          "type": "address"
        },
        {
          "indexed": false,
          "internalType": "uint256",
          "name": "amount",
          "type": "uint256"
        }
      ],
      "name": "Deposit",
      "type": "event"
    },
    {
      "anonymous": false,
      "inputs": [
        {
          "indexed": true,
          "internalType": "address",
          "name": "newOwner",
          "type": "address"
        }
      ],
      "name": "OwnerAdded",
      "type": "event"
    },
    {
      "anonymous": false,
      "inputs": [
        {
          "indexed": true,
          "internalType": "address",
          "name": "removedOwner",
          "type": "address"
        }
      ],
      "name": "OwnerRemoved",
      "type": "event"
    },
    {
      "anonymous": false,
      "inputs": [
        {
          "indexed": true,
          "internalType": "address",
          "name": "previousOwner",
          "type": "address"
        },
        {
          "indexed": true,
          "internalType": "address",
          "name": "newOwner",
          "type": "address"
        }
      ],
      "name": "OwnershipTransferred",
      "type": "event"
    },
    {
      "anonymous": false,
      "inputs": [
        {
          "indexed": false,
          "internalType": "uint256",
          "name": "newThreshold",
          "type": "uint256"
        }
      ],
      "name": "ThresholdChanged",
      "type": "event"
    },
    {
      "anonymous": false,
      "inputs": [
        {
          "indexed": true,
          "internalType": "address",
          "name": "owner",
          "type": "address"
        },
        {
          "indexed": true,
          "internalType": "uint256",
          "name": "transactionId",
          "type": "uint256"
        }
      ],
      "name": "TransactionConfirmed",
      "type": "event"
    },
    {
      "anonymous": false,
      "inputs": [
        {
          "indexed": true,
          "internalType": "uint256",
          "name": "transactionId",
          "type": "uint256"
        }
      ],
      "name": "TransactionExecuted",
      "type": "event"
    },
    {
      "anonymous": false,
      "inputs": [
        {
          "indexed": true,
          "internalType": "uint256",
          "name": "transactionId",
          "type": "uint256"
        }
      ],
      "name": "TransactionSubmitted",
      "type": "event"
    },
    {
      "inputs": [
        {
          "internalType": "address",
          "name": "newOwner",
          "type": "address"
        }
      ],
      "name": "addOwner",
      "outputs": [],
      "stateMutability": "nonpayable",
      "type": "function"
    },
    {
      "inputs": [
        {
          "internalType": "uint256",
          "name": "newThreshold",
          "type": "uint256"
        }
      ],
      "name": "changeThreshold",
      "outputs": [],
      "stateMutability": "nonpayable",
      "type": "function"
    },
    {
      "inputs": [
        {
          "internalType": "uint256",
          "name": "transactionId",
          "type": "uint256"
        }
      ],
      "name": "confirmTransaction",
      "outputs": [],
      "stateMutability": "nonpayable",
      "type": "function"
    },
    {
      "inputs": [
        {
          "internalType": "uint256",
          "name": "",
          "type": "uint256"
        },
        {
          "internalType": "address",
          "name": "",
          "type": "address"
        }
      ],
      "name": "confirmations",
      "outputs": [
        {
          "internalType": "bool",
          "name": "",
          "type": "bool"
        }
      ],
      "stateMutability": "view",
      "type": "function"
    },
    {
      "inputs": [
        {
          "internalType": "uint256",
          "name": "transactionId",
          "type": "uint256"
        }
      ],
      "name": "executeTransaction",
      "outputs": [],
      "stateMutability": "nonpayable",
      "type": "function"
    },
    {
      "inputs": [
        {
          "internalType": "address",
          "name": "",
          "type": "address"
        }
      ],
      "name": "isOwner",
      "outputs": [
        {
          "internalType": "bool",
          "name": "",
          "type": "bool"
        }
      ],
      "stateMutability": "view",
      "type": "function"
    },
    {
      "inputs": [],
      "name": "owner",
      "outputs": [
        {
          "internalType": "address",
          "name": "",
          "type": "address"
        }
      ],
      "stateMutability": "view",
      "type": "function"
    },
    {
      "inputs": [
        {
          "internalType": "uint256",
          "name": "",
          "type": "uint256"
        }
      ],
      "name": "owners",
      "outputs": [
        {
          "internalType": "address",
          "name": "",
          "type": "address"
        }
      ],
      "stateMutability": "view",
      "type": "function"
    },
    {
      "inputs": [
        {
          "internalType": "address",
          "name": "ownerToRemove",
          "type": "address"
        }
      ],
      "name": "removeOwner",
      "outputs": [],
      "stateMutability": "nonpayable",
      "type": "function"
    },
    {
      "inputs": [],
      "name": "renounceOwnership",
      "outputs": [],
      "stateMutability": "nonpayable",
      "type": "function"
    },
    {
      "inputs": [
        {
          "internalType": "address payable",
          "name": "to",
          "type": "address"
        },
        {
          "internalType": "uint256",
          "name": "value",
          "type": "uint256"
        },
        {
          "internalType": "bytes",
          "name": "data",
          "type": "bytes"
        }
      ],
      "name": "submitTransaction",
      "outputs": [
        {
          "internalType": "uint256",
          "name": "transactionId",
          "type": "uint256"
        }
      ],
      "stateMutability": "nonpayable",
      "type": "function"
    },
    {
      "inputs": [],
      "name": "threshold",
      "outputs": [
        {
          "internalType": "uint256",
          "name": "",
          "type": "uint256"
        }
      ],
      "stateMutability": "view",
      "type": "function"
    },
    {
      "inputs": [
        {
          "internalType": "uint256",
          "name": "",
          "type": "uint256"
        }
      ],
      "name": "transactions",
      "outputs": [
        {
          "internalType": "address payable",
          "name": "to",
          "type": "address"
        },
        {
          "internalType": "uint256",
          "name": "value",
          "type": "uint256"
        },
        {
          "internalType": "bytes",
          "name": "data",
          "type": "bytes"
        },
        {
          "internalType": "bool",
          "name": "executed",
          "type": "bool"
        },
        {
          "internalType": "uint256",
          "name": "confirmations",
          "type": "uint256"
        }
      ],
      "stateMutability": "view",
      "type": "function"
    },
    {
      "inputs": [
        {
          "internalType": "address",
          "name": "newOwner",
          "type": "address"
        }
      ],
      "name": "transferOwnership",
      "outputs": [],
      "stateMutability": "nonpayable",
      "type": "function"
    },
    {
      "stateMutability": "payable",
      "type": "receive"
    }
  ],
  "bytecode": "0x60806040523480156200001157600080fd5b506040516200145238038062001452833981016040819052620000349162000258565b33806200005b57604051631e4fbdf760e01b81526000600482015260240160405180910390fd5b6200006681620001d5565b5081516000036200008a5760405163aabd5a0960e01b815260040160405180910390fd5b801580620000985750815181115b15620000b75760405163aabd5a0960e01b815260040160405180910390fd5b60005b8251811015620001ca576000838281518110620000db57620000db62000332565b6020026020010151905060006001600160a01b0316816001600160a01b0316036200011957604051633649397d60e21b815260040160405180910390fd5b6001600160a01b03811660009081526002602052604090205460ff1615620001545760405163d67c6fdb60e01b815260040160405180910390fd5b6001600160a01b03166000818152600260205260408120805460ff191660019081179091558054808201825591527fb10e2d527612073b26eecdfd717e6a320cf44b4afac2b0732d9fcbe2b7fa0cf60180546001600160a01b031916909117905580620001c18162000348565b915050620000ba565b506003555062000370565b600080546001600160a01b038381166001600160a01b0319831681178455604051919092169283917f8be0079c531659141344cd1fd0a4f28419497f9722a3daafe3b4186f6b6457e09190a35050565b634e487b7160e01b600052604160045260246000fd5b80516001600160a01b03811681146200025357600080fd5b919050565b600080604083850312156200026c57600080fd5b82516001600160401b03808211156200028457600080fd5b818501915085601f8301126200029957600080fd5b8151602082821115620002b057620002b062000225565b8160051b604051601f19603f83011681018181108682111715620002d857620002d862000225565b604052928352818301935084810182019289841115620002f757600080fd5b948201945b83861015620003205762000310866200023b565b85529482019493820193620002fc565b97909101519698969750505050505050565b634e487b7160e01b600052603260045260246000fd5b6000600182016200036957634e487b7160e01b600052601160045260246000fd5b5060010190565b6110d280620003806000396000f3fe6080604052600436106100e15760003560e01c8063715018a61161007f578063c01a8c8411610059578063c01a8c84146102c4578063c6427474146102e4578063ee22610b14610304578063f2fde38b1461032457600080fd5b8063715018a6146102605780638da5cb5b146102755780639ace38c21461029357600080fd5b80633411c81c116100bb5780633411c81c146101c157806342cde4e8146101fc578063694e80c3146102205780637065cb481461024057600080fd5b8063025e7c2714610122578063173825d91461015f5780632f54bf6e1461018157600080fd5b3661011d5760405134815233907fe1fffcc4923d04b559f4d29a8bfc6cda04eb5b0d3c460751c2402c5c5cc9109c9060200160405180910390a2005b600080fd5b34801561012e57600080fd5b5061014261013d366004610c76565b610344565b6040516001600160a01b0390911681526020015b60405180910390f35b34801561016b57600080fd5b5061017f61017a366004610ca4565b61036e565b005b34801561018d57600080fd5b506101b161019c366004610ca4565b60026020526000908152604090205460ff1681565b6040519015158152602001610156565b3480156101cd57600080fd5b506101b16101dc366004610cc8565b600560209081526000928352604080842090915290825290205460ff1681565b34801561020857600080fd5b5061021260035481565b604051908152602001610156565b34801561022c57600080fd5b5061017f61023b366004610c76565b610524565b34801561024c57600080fd5b5061017f61025b366004610ca4565b610593565b34801561026c57600080fd5b5061017f610687565b34801561028157600080fd5b506000546001600160a01b0316610142565b34801561029f57600080fd5b506102b36102ae366004610c76565b61069b565b604051610156959493929190610cf8565b3480156102d057600080fd5b5061017f6102df366004610c76565b610774565b3480156102f057600080fd5b506102126102ff366004610d89565b6108e7565b34801561031057600080fd5b5061017f61031f366004610c76565b610a30565b34801561033057600080fd5b5061017f61033f366004610ca4565b610bb9565b6001818154811061035457600080fd5b6000918252602090912001546001600160a01b0316905081565b610376610bf9565b6001600160a01b03811660009081526002602052604090205460ff166103af57604051631dd523ff60e31b815260040160405180910390fd5b6001600160a01b0381166000908152600260205260408120805460ff191690555b6001548110156104d457816001600160a01b0316600182815481106103f7576103f7610e56565b6000918252602090912001546001600160a01b0316036104c25760018054610420908290610e82565b8154811061043057610430610e56565b600091825260209091200154600180546001600160a01b03909216918390811061045c5761045c610e56565b9060005260206000200160006101000a8154816001600160a01b0302191690836001600160a01b03160217905550600180548061049b5761049b610e9b565b600082815260209020810160001990810180546001600160a01b03191690550190556104d4565b806104cc81610eb1565b9150506103d0565b5060015460035411156104ed576001546104ed90610524565b6040516001600160a01b038216907f58619076adf5bb0943d100ef88d52d7c3fd691b19d3a9071b555b651fbf418da90600090a250565b61052c610bf9565b80158061053a575060015481115b156105585760405163aabd5a0960e01b815260040160405180910390fd5b60038190556040518181527f6c4ce60fd690e1216286a10b875c5662555f10774484e58142cedd7a90781baa9060200160405180910390a150565b61059b610bf9565b6001600160a01b0381166105c257604051633649397d60e21b815260040160405180910390fd5b6001600160a01b03811660009081526002602052604090205460ff16156105fc5760405163d67c6fdb60e01b815260040160405180910390fd5b6001600160a01b038116600081815260026020526040808220805460ff19166001908117909155805480820182559083527fb10e2d527612073b26eecdfd717e6a320cf44b4afac2b0732d9fcbe2b7fa0cf60180546001600160a01b03191684179055517f994a936646fe87ffe4f1e469d3d6aa417d6b855598397f323de5b449f765f0c39190a250565b61068f610bf9565b6106996000610c26565b565b600481815481106106ab57600080fd5b60009182526020909120600590910201805460018201546002830180546001600160a01b0390931694509092916106e190610eca565b80601f016020809104026020016040519081016040528092919081815260200182805461070d90610eca565b801561075a5780601f1061072f5761010080835404028352916020019161075a565b820191906000526020600020905b81548152906001019060200180831161073d57829003601f168201915b505050506003830154600490930154919260ff1691905085565b61077c610bf9565b600454811061079e576040516315147c4560e21b815260040160405180910390fd5b600481815481106107b1576107b1610e56565b600091825260209091206003600590920201015460ff16156107e65760405163db5e659b60e01b815260040160405180910390fd5b600081815260056020908152604080832033845290915290205460ff161561082157604051634203265760e01b815260040160405180910390fd5b60008181526005602090815260408083203384529091529020805460ff19166001908117909155600480548390811061085c5761085c610e56565b9060005260206000209060050201600401600082825461087c9190610f04565b9091555050604051819033907ff8a17c9136a3ae33364fac05eb088a3cbafee10c1889c88593e20ee2d8e4eb8890600090a3600354600482815481106108c4576108c4610e56565b906000526020600020906005020160040154106108e4576108e481610a30565b50565b60006108f1610bf9565b6040805160a0810182526001600160a01b038681168252602082018681529282018581526000606084018190526080840181905260048054600181018255915283517f8a35acfbc15ff81a39ae7d344fd709f28e8600b4aa8c65c6b64bfe7fe36bd19b600590920291820180546001600160a01b0319169190941617835593517f8a35acfbc15ff81a39ae7d344fd709f28e8600b4aa8c65c6b64bfe7fe36bd19c85015551919290917f8a35acfbc15ff81a39ae7d344fd709f28e8600b4aa8c65c6b64bfe7fe36bd19d909101906109c99082610f66565b50606082015160038201805460ff1916911515919091179055608090910151600491820155546109fb90600190610e82565b60405190915081907fd0b5d9eac097410294ec9f2cee7cd185cf31ab46babf3dfdbeac8b222b03f2d190600090a29392505050565b610a38610bf9565b6004548110610a5a576040516315147c4560e21b815260040160405180910390fd5b60048181548110610a6d57610a6d610e56565b600091825260209091206003600590920201015460ff1615610aa25760405163db5e659b60e01b815260040160405180910390fd5b600060048281548110610ab757610ab7610e56565b9060005260206000209060050201905060035481600401541015610aee57604051635c9885ab60e11b815260040160405180910390fd5b60038101805460ff191660019081179091558154908201546040516000926001600160a01b03169190610b25906002860190611026565b60006040518083038185875af1925050503d8060008114610b62576040519150601f19603f3d011682016040523d82523d6000602084013e610b67565b606091505b5050905080610b89576040516317f2c34560e31b815260040160405180910390fd5b60405183907f15ed165a284872ea7017f03df402a0cadfbfab588320ffaf83f160c2f82781c790600090a2505050565b610bc1610bf9565b6001600160a01b038116610bf057604051631e4fbdf760e01b8152600060048201526024015b60405180910390fd5b6108e481610c26565b6000546001600160a01b031633146106995760405163118cdaa760e01b8152336004820152602401610be7565b600080546001600160a01b038381166001600160a01b0319831681178455604051919092169283917f8be0079c531659141344cd1fd0a4f28419497f9722a3daafe3b4186f6b6457e09190a35050565b600060208284031215610c8857600080fd5b5035919050565b6001600160a01b03811681146108e457600080fd5b600060208284031215610cb657600080fd5b8135610cc181610c8f565b9392505050565b60008060408385031215610cdb57600080fd5b823591506020830135610ced81610c8f565b809150509250929050565b60018060a01b038616815260006020868184015260a0604084015285518060a085015260005b81811015610d3a5787810183015185820160c001528201610d1e565b50600060c0828601015260c0601f19601f83011685010192505050610d63606083018515159052565b8260808301529695505050505050565b634e487b7160e01b600052604160045260246000fd5b600080600060608486031215610d9e57600080fd5b8335610da981610c8f565b925060208401359150604084013567ffffffffffffffff80821115610dcd57600080fd5b818601915086601f830112610de157600080fd5b813581811115610df357610df3610d73565b604051601f8201601f19908116603f01168101908382118183101715610e1b57610e1b610d73565b81604052828152896020848701011115610e3457600080fd5b8260208601602083013760006020848301015280955050505050509250925092565b634e487b7160e01b600052603260045260246000fd5b634e487b7160e01b600052601160045260246000fd5b81810381811115610e9557610e95610e6c565b92915050565b634e487b7160e01b600052603160045260246000fd5b600060018201610ec357610ec3610e6c565b5060010190565b600181811c90821680610ede57607f821691505b602082108103610efe57634e487b7160e01b600052602260045260246000fd5b50919050565b80820180821115610e9557610e95610e6c565b601f821115610f6157600081815260208120601f850160051c81016020861015610f3e5750805b601f850160051c820191505b81811015610f5d57828155600101610f4a565b5050505b505050565b815167ffffffffffffffff811115610f8057610f80610d73565b610f9481610f8e8454610eca565b84610f17565b602080601f831160018114610fc95760008415610fb15750858301515b600019600386901b1c1916600185901b178555610f5d565b600085815260208120601f198616915b82811015610ff857888601518255948401946001909101908401610fd9565b50858210156110165787850151600019600388901b60f8161c191681555b5050505050600190811b01905550565b600080835461103481610eca565b6001828116801561104c576001811461106157611090565b60ff1984168752821515830287019450611090565b8760005260208060002060005b858110156110875781548a82015290840190820161106e565b50505082870194505b5092969550505050505056fea2646970667358221220c0091a9b2e676354bb0afb71cd81c267b2a0f1c05346fce48f5ab8e0396d478864736f6c63430008140033",
  "linkReferences": {},
  "deployedLinkReferences": {}
}