{
  "_format": "hh-sol-artifact-1",
  "contractName": "MultiSigWallet",
  "sourceName": "contracts/MultiSignature.sol",
  "abi": [
    {
      "inputs": [
        {
          "internalType": "address[]",
          "name": "_owners",
          "type": "address[]"
        },
        {
          "internalType": "uint256",
          "name": "_threshold",
          "type": "uint256"
        }
      ],
      "stateMutability": "nonpayable",
      "type": "constructor"
    },
    {
      "inputs": [],
      "name": "InvalidOwnerAddress",
      "type": "error"
    },
    {
      "inputs": [],
      "name": "InvalidThreshold",
      "type": "error"
    },
    {
      "inputs": [],
      "name": "NotAnOwner",
      "type": "error"
    },
    {
      "inputs": [],
      "name": "NotEnoughConfirmations",
      "type": "error"
    },
    {
      "inputs": [
        {
          "internalType": "address",
          "name": "owner",
          "type": "address"
        }
      ],
      "name": "OwnableInvalidOwner",
      "type": "error"
    },
    {
      "inputs": [
        {
          "internalType": "address",
          "name": "account",
          "type": "address"
        }
      ],
      "name": "OwnableUnauthorizedAccount",
      "type": "error"
    },
    {
      "inputs": [],
      "name": "OwnerNotUnique",
      "type": "error"
    },
    {
      "inputs": [],
      "name": "TransactionAlreadyConfirmed",
      "type": "error"
    },
    {
      "inputs": [],
      "name": "TransactionAlreadyExecuted",
      "type": "error"
    },
    {
      "inputs": [],
      "name": "TransactionDoesNotExist",
      "type": "error"
    },
    {
      "inputs": [],
      "name": "TransactionFailed",
      "type": "error"
    },
    {
      "anonymous": false,
      "inputs": [
        {
          "indexed": true,
          "internalType": "address",
          "name": "sender",
          "type": "address"
        },
        {
          "indexed": false,
          "internalType": "uint256",
          "name": "amount",
          "type": "uint256"
        }
      ],
      "name": "Deposit",
      "type": "event"
    },
    {
      "anonymous": false,
      "inputs": [
        {
          "indexed": true,
          "internalType": "address",
          "name": "newOwner",
          "type": "address"
        }
      ],
      "name": "OwnerAdded",
      "type": "event"
    },
    {
      "anonymous": false,
      "inputs": [
        {
          "indexed": true,
          "internalType": "address",
          "name": "removedOwner",
          "type": "address"
        }
      ],
      "name": "OwnerRemoved",
      "type": "event"
    },
    {
      "anonymous": false,
      "inputs": [
        {
          "indexed": true,
          "internalType": "address",
          "name": "previousOwner",
          "type": "address"
        },
        {
          "indexed": true,
          "internalType": "address",
          "name": "newOwner",
          "type": "address"
        }
      ],
      "name": "OwnershipTransferred",
      "type": "event"
    },
    {
      "anonymous": false,
      "inputs": [
        {
          "indexed": false,
          "internalType": "uint256",
          "name": "newThreshold",
          "type": "uint256"
        }
      ],
      "name": "ThresholdChanged",
      "type": "event"
    },
    {
      "anonymous": false,
      "inputs": [
        {
          "indexed": true,
          "internalType": "address",
          "name": "owner",
          "type": "address"
        },
        {
          "indexed": true,
          "internalType": "uint256",
          "name": "transactionId",
          "type": "uint256"
        }
      ],
      "name": "TransactionConfirmed",
      "type": "event"
    },
    {
      "anonymous": false,
      "inputs": [
        {
          "indexed": true,
          "internalType": "uint256",
          "name": "transactionId",
          "type": "uint256"
        }
      ],
      "name": "TransactionExecuted",
      "type": "event"
    },
    {
      "anonymous": false,
      "inputs": [
        {
          "indexed": true,
          "internalType": "uint256",
          "name": "transactionId",
          "type": "uint256"
        }
      ],
      "name": "TransactionSubmitted",
      "type": "event"
    },
    {
      "inputs": [
        {
          "internalType": "address",
          "name": "newOwner",
          "type": "address"
        }
      ],
      "name": "addOwner",
      "outputs": [],
      "stateMutability": "nonpayable",
      "type": "function"
    },
    {
      "inputs": [
        {
          "internalType": "uint256",
          "name": "newThreshold",
          "type": "uint256"
        }
      ],
      "name": "changeThreshold",
      "outputs": [],
      "stateMutability": "nonpayable",
      "type": "function"
    },
    {
      "inputs": [
        {
          "internalType": "uint256",
          "name": "transactionId",
          "type": "uint256"
        }
      ],
      "name": "confirmTransaction",
      "outputs": [],
      "stateMutability": "nonpayable",
      "type": "function"
    },
    {
      "inputs": [
        {
          "internalType": "uint256",
          "name": "",
          "type": "uint256"
        },
        {
          "internalType": "address",
          "name": "",
          "type": "address"
        }
      ],
      "name": "confirmations",
      "outputs": [
        {
          "internalType": "bool",
          "name": "",
          "type": "bool"
        }
      ],
      "stateMutability": "view",
      "type": "function"
    },
    {
      "inputs": [
        {
          "internalType": "uint256",
          "name": "transactionId",
          "type": "uint256"
        }
      ],
      "name": "executeTransaction",
      "outputs": [],
      "stateMutability": "nonpayable",
      "type": "function"
    },
    {
      "inputs": [
        {
          "internalType": "address",
          "name": "",
          "type": "address"
        }
      ],
      "name": "isOwner",
      "outputs": [
        {
          "internalType": "bool",
          "name": "",
          "type": "bool"
        }
      ],
      "stateMutability": "view",
      "type": "function"
    },
    {
      "inputs": [],
      "name": "owner",
      "outputs": [
        {
          "internalType": "address",
          "name": "",
          "type": "address"
        }
      ],
      "stateMutability": "view",
      "type": "function"
    },
    {
      "inputs": [
        {
          "internalType": "uint256",
          "name": "",
          "type": "uint256"
        }
      ],
      "name": "owners",
      "outputs": [
        {
          "internalType": "address",
          "name": "",
          "type": "address"
        }
      ],
      "stateMutability": "view",
      "type": "function"
    },
    {
      "inputs": [
        {
          "internalType": "address",
          "name": "ownerToRemove",
          "type": "address"
        }
      ],
      "name": "removeOwner",
      "outputs": [],
      "stateMutability": "nonpayable",
      "type": "function"
    },
    {
      "inputs": [],
      "name": "renounceOwnership",
      "outputs": [],
      "stateMutability": "nonpayable",
      "type": "function"
    },
    {
      "inputs": [
        {
          "internalType": "address payable",
          "name": "to",
          "type": "address"
        },
        {
          "internalType": "uint256",
          "name": "value",
          "type": "uint256"
        },
        {
          "internalType": "bytes",
          "name": "data",
          "type": "bytes"
        }
      ],
      "name": "submitTransaction",
      "outputs": [
        {
          "internalType": "uint256",
          "name": "transactionId",
          "type": "uint256"
        }
      ],
      "stateMutability": "nonpayable",
      "type": "function"
    },
    {
      "inputs": [],
      "name": "threshold",
      "outputs": [
        {
          "internalType": "uint256",
          "name": "",
          "type": "uint256"
        }
      ],
      "stateMutability": "view",
      "type": "function"
    },
    {
      "inputs": [
        {
          "internalType": "uint256",
          "name": "",
          "type": "uint256"
        }
      ],
      "name": "transactions",
      "outputs": [
        {
          "internalType": "address payable",
          "name": "to",
          "type": "address"
        },
        {
          "internalType": "uint256",
          "name": "value",
          "type": "uint256"
        },
        {
          "internalType": "bytes",
          "name": "data",
          "type": "bytes"
        },
        {
          "internalType": "bool",
          "name": "executed",
          "type": "bool"
        },
        {
          "internalType": "uint256",
          "name": "confirmations",
          "type": "uint256"
        }
      ],
      "stateMutability": "view",
      "type": "function"
    },
    {
      "inputs": [
        {
          "internalType": "address",
          "name": "newOwner",
          "type": "address"
        }
      ],
      "name": "transferOwnership",
      "outputs": [],
      "stateMutability": "nonpayable",
      "type": "function"
    },
    {
      "stateMutability": "payable",
      "type": "receive"
    }
  ],
  "bytecode": "0x60806040523480156200001157600080fd5b50604051620023d9380380620023d983398181016040528101906200003791906200062d565b33600073ffffffffffffffffffffffffffffffffffffffff168173ffffffffffffffffffffffffffffffffffffffff1603620000ad5760006040517f1e4fbdf7000000000000000000000000000000000000000000000000000000008152600401620000a49190620006a4565b60405180910390fd5b620000be816200034060201b60201c565b506000825103620000fb576040517faabd5a0900000000000000000000000000000000000000000000000000000000815260040160405180910390fd5b60008114806200010b5750815181115b1562000143576040517faabd5a0900000000000000000000000000000000000000000000000000000000815260040160405180910390fd5b60005b825181101562000330576000838281518110620001685762000167620006c1565b5b60200260200101519050600073ffffffffffffffffffffffffffffffffffffffff168173ffffffffffffffffffffffffffffffffffffffff1603620001d9576040517fd924e5f400000000000000000000000000000000000000000000000000000000815260040160405180910390fd5b600260008273ffffffffffffffffffffffffffffffffffffffff1673ffffffffffffffffffffffffffffffffffffffff16815260200190815260200160002060009054906101000a900460ff16156200025e576040517fd67c6fdb00000000000000000000000000000000000000000000000000000000815260040160405180910390fd5b6001600260008373ffffffffffffffffffffffffffffffffffffffff1673ffffffffffffffffffffffffffffffffffffffff16815260200190815260200160002060006101000a81548160ff0219169083151502179055506001819080600181540180825580915050600190039060005260206000200160009091909190916101000a81548173ffffffffffffffffffffffffffffffffffffffff021916908373ffffffffffffffffffffffffffffffffffffffff16021790555050808062000327906200071f565b91505062000146565b508060038190555050506200076c565b60008060009054906101000a900473ffffffffffffffffffffffffffffffffffffffff169050816000806101000a81548173ffffffffffffffffffffffffffffffffffffffff021916908373ffffffffffffffffffffffffffffffffffffffff1602179055508173ffffffffffffffffffffffffffffffffffffffff168173ffffffffffffffffffffffffffffffffffffffff167f8be0079c531659141344cd1fd0a4f28419497f9722a3daafe3b4186f6b6457e060405160405180910390a35050565b6000604051905090565b600080fd5b600080fd5b600080fd5b6000601f19601f8301169050919050565b7f4e487b7100000000000000000000000000000000000000000000000000000000600052604160045260246000fd5b62000468826200041d565b810181811067ffffffffffffffff821117156200048a57620004896200042e565b5b80604052505050565b60006200049f62000404565b9050620004ad82826200045d565b919050565b600067ffffffffffffffff821115620004d057620004cf6200042e565b5b602082029050602081019050919050565b600080fd5b600073ffffffffffffffffffffffffffffffffffffffff82169050919050565b60006200051382620004e6565b9050919050565b620005258162000506565b81146200053157600080fd5b50565b60008151905062000545816200051a565b92915050565b6000620005626200055c84620004b2565b62000493565b90508083825260208201905060208402830185811115620005885762000587620004e1565b5b835b81811015620005b55780620005a0888262000534565b8452602084019350506020810190506200058a565b5050509392505050565b600082601f830112620005d757620005d662000418565b5b8151620005e98482602086016200054b565b91505092915050565b6000819050919050565b6200060781620005f2565b81146200061357600080fd5b50565b6000815190506200062781620005fc565b92915050565b600080604083850312156200064757620006466200040e565b5b600083015167ffffffffffffffff81111562000668576200066762000413565b5b6200067685828601620005bf565b9250506020620006898582860162000616565b9150509250929050565b6200069e8162000506565b82525050565b6000602082019050620006bb600083018462000693565b92915050565b7f4e487b7100000000000000000000000000000000000000000000000000000000600052603260045260246000fd5b7f4e487b7100000000000000000000000000000000000000000000000000000000600052601160045260246000fd5b60006200072c82620005f2565b91507fffffffffffffffffffffffffffffffffffffffffffffffffffffffffffffffff8203620007615762000760620006f0565b5b600182019050919050565b611c5d806200077c6000396000f3fe6080604052600436106100e15760003560e01c8063715018a61161007f578063c01a8c8411610059578063c01a8c841461031b578063c642747414610344578063ee22610b14610381578063f2fde38b146103aa57610136565b8063715018a6146102985780638da5cb5b146102af5780639ace38c2146102da57610136565b80633411c81c116100bb5780633411c81c146101de57806342cde4e81461021b578063694e80c3146102465780637065cb481461026f57610136565b8063025e7c271461013b578063173825d9146101785780632f54bf6e146101a157610136565b36610136573373ffffffffffffffffffffffffffffffffffffffff167fe1fffcc4923d04b559f4d29a8bfc6cda04eb5b0d3c460751c2402c5c5cc9109c3460405161012c91906112d9565b60405180910390a2005b600080fd5b34801561014757600080fd5b50610162600480360381019061015d9190611334565b6103d3565b60405161016f91906113a2565b60405180910390f35b34801561018457600080fd5b5061019f600480360381019061019a91906113e9565b610412565b005b3480156101ad57600080fd5b506101c860048036038101906101c391906113e9565b6106e4565b6040516101d59190611431565b60405180910390f35b3480156101ea57600080fd5b506102056004803603810190610200919061144c565b610704565b6040516102129190611431565b60405180910390f35b34801561022757600080fd5b50610230610733565b60405161023d91906112d9565b60405180910390f35b34801561025257600080fd5b5061026d60048036038101906102689190611334565b610739565b005b34801561027b57600080fd5b50610296600480360381019061029191906113e9565b6107cc565b005b3480156102a457600080fd5b506102ad6109bf565b005b3480156102bb57600080fd5b506102c46109d3565b6040516102d191906113a2565b60405180910390f35b3480156102e657600080fd5b5061030160048036038101906102fc9190611334565b6109fc565b60405161031295949392919061153d565b60405180910390f35b34801561032757600080fd5b50610342600480360381019061033d9190611334565b610af7565b005b34801561035057600080fd5b5061036b600480360381019061036691906116f8565b610d61565b60405161037891906112d9565b60405180910390f35b34801561038d57600080fd5b506103a860048036038101906103a39190611334565b610eb2565b005b3480156103b657600080fd5b506103d160048036038101906103cc91906113e9565b6110e7565b005b600181815481106103e357600080fd5b906000526020600020016000915054906101000a900473ffffffffffffffffffffffffffffffffffffffff1681565b61041a61116d565b600260008273ffffffffffffffffffffffffffffffffffffffff1673ffffffffffffffffffffffffffffffffffffffff16815260200190815260200160002060009054906101000a900460ff1661049d576040517feea91ff800000000000000000000000000000000000000000000000000000000815260040160405180910390fd5b6000600260008373ffffffffffffffffffffffffffffffffffffffff1673ffffffffffffffffffffffffffffffffffffffff16815260200190815260200160002060006101000a81548160ff02191690831515021790555060005b60018054905081101561067f578173ffffffffffffffffffffffffffffffffffffffff16600182815481106105305761052f611767565b5b9060005260206000200160009054906101000a900473ffffffffffffffffffffffffffffffffffffffff1673ffffffffffffffffffffffffffffffffffffffff160361066c57600180808054905061058891906117c5565b8154811061059957610598611767565b5b9060005260206000200160009054906101000a900473ffffffffffffffffffffffffffffffffffffffff16600182815481106105d8576105d7611767565b5b9060005260206000200160006101000a81548173ffffffffffffffffffffffffffffffffffffffff021916908373ffffffffffffffffffffffffffffffffffffffff1602179055506001805480610632576106316117f9565b5b6001900381819060005260206000200160006101000a81549073ffffffffffffffffffffffffffffffffffffffff0219169055905561067f565b808061067790611828565b9150506104f8565b50600180549050600354111561069e5761069d600180549050610739565b5b8073ffffffffffffffffffffffffffffffffffffffff167f58619076adf5bb0943d100ef88d52d7c3fd691b19d3a9071b555b651fbf418da60405160405180910390a250565b60026020528060005260406000206000915054906101000a900460ff1681565b60056020528160005260406000206020528060005260406000206000915091509054906101000a900460ff1681565b60035481565b61074161116d565b6000811480610754575060018054905081115b1561078b576040517faabd5a0900000000000000000000000000000000000000000000000000000000815260040160405180910390fd5b806003819055507f6c4ce60fd690e1216286a10b875c5662555f10774484e58142cedd7a90781baa816040516107c191906112d9565b60405180910390a150565b6107d461116d565b600073ffffffffffffffffffffffffffffffffffffffff168173ffffffffffffffffffffffffffffffffffffffff160361083a576040517fd924e5f400000000000000000000000000000000000000000000000000000000815260040160405180910390fd5b600260008273ffffffffffffffffffffffffffffffffffffffff1673ffffffffffffffffffffffffffffffffffffffff16815260200190815260200160002060009054906101000a900460ff16156108be576040517fd67c6fdb00000000000000000000000000000000000000000000000000000000815260040160405180910390fd5b6001600260008373ffffffffffffffffffffffffffffffffffffffff1673ffffffffffffffffffffffffffffffffffffffff16815260200190815260200160002060006101000a81548160ff0219169083151502179055506001819080600181540180825580915050600190039060005260206000200160009091909190916101000a81548173ffffffffffffffffffffffffffffffffffffffff021916908373ffffffffffffffffffffffffffffffffffffffff1602179055508073ffffffffffffffffffffffffffffffffffffffff167f994a936646fe87ffe4f1e469d3d6aa417d6b855598397f323de5b449f765f0c360405160405180910390a250565b6109c761116d565b6109d160006111f4565b565b60008060009054906101000a900473ffffffffffffffffffffffffffffffffffffffff16905090565b60048181548110610a0c57600080fd5b90600052602060002090600502016000915090508060000160009054906101000a900473ffffffffffffffffffffffffffffffffffffffff1690806001015490806002018054610a5b9061189f565b80601f0160208091040260200160405190810160405280929190818152602001828054610a879061189f565b8015610ad45780601f10610aa957610100808354040283529160200191610ad4565b820191906000526020600020905b815481529060010190602001808311610ab757829003601f168201915b5050505050908060030160009054906101000a900460ff16908060040154905085565b610aff61116d565b6004805490508110610b3d576040517f5451f11400000000000000000000000000000000000000000000000000000000815260040160405180910390fd5b60048181548110610b5157610b50611767565b5b906000526020600020906005020160030160009054906101000a900460ff1615610ba7576040517fdb5e659b00000000000000000000000000000000000000000000000000000000815260040160405180910390fd5b6005600082815260200190815260200160002060003373ffffffffffffffffffffffffffffffffffffffff1673ffffffffffffffffffffffffffffffffffffffff16815260200190815260200160002060009054906101000a900460ff1615610c3c576040517f4203265700000000000000000000000000000000000000000000000000000000815260040160405180910390fd5b60016005600083815260200190815260200160002060003373ffffffffffffffffffffffffffffffffffffffff1673ffffffffffffffffffffffffffffffffffffffff16815260200190815260200160002060006101000a81548160ff021916908315150217905550600160048281548110610cbb57610cba611767565b5b90600052602060002090600502016004016000828254610cdb91906118d0565b92505081905550803373ffffffffffffffffffffffffffffffffffffffff167ff8a17c9136a3ae33364fac05eb088a3cbafee10c1889c88593e20ee2d8e4eb8860405160405180910390a360035460048281548110610d3d57610d3c611767565b5b90600052602060002090600502016004015410610d5e57610d5d81610eb2565b5b50565b6000610d6b61116d565b60046040518060a001604052808673ffffffffffffffffffffffffffffffffffffffff1681526020018581526020018481526020016000151581526020016000815250908060018154018082558091505060019003906000526020600020906005020160009091909190915060008201518160000160006101000a81548173ffffffffffffffffffffffffffffffffffffffff021916908373ffffffffffffffffffffffffffffffffffffffff160217905550602082015181600101556040820151816002019081610e3d9190611ab0565b5060608201518160030160006101000a81548160ff0219169083151502179055506080820151816004015550506001600480549050610e7c91906117c5565b9050807fd0b5d9eac097410294ec9f2cee7cd185cf31ab46babf3dfdbeac8b222b03f2d160405160405180910390a29392505050565b610eba61116d565b6004805490508110610ef8576040517f5451f11400000000000000000000000000000000000000000000000000000000815260040160405180910390fd5b60048181548110610f0c57610f0b611767565b5b906000526020600020906005020160030160009054906101000a900460ff1615610f62576040517fdb5e659b00000000000000000000000000000000000000000000000000000000815260040160405180910390fd5b600060048281548110610f7857610f77611767565b5b9060005260206000209060050201905060035481600401541015610fc8576040517fb9310b5600000000000000000000000000000000000000000000000000000000815260040160405180910390fd5b60018160030160006101000a81548160ff02191690831515021790555060008160000160009054906101000a900473ffffffffffffffffffffffffffffffffffffffff1673ffffffffffffffffffffffffffffffffffffffff168260010154836002016040516110389190611c10565b60006040518083038185875af1925050503d8060008114611075576040519150601f19603f3d011682016040523d82523d6000602084013e61107a565b606091505b50509050806110b5576040517fbf961a2800000000000000000000000000000000000000000000000000000000815260040160405180910390fd5b827f15ed165a284872ea7017f03df402a0cadfbfab588320ffaf83f160c2f82781c760405160405180910390a2505050565b6110ef61116d565b600073ffffffffffffffffffffffffffffffffffffffff168173ffffffffffffffffffffffffffffffffffffffff16036111615760006040517f1e4fbdf700000000000000000000000000000000000000000000000000000000815260040161115891906113a2565b60405180910390fd5b61116a816111f4565b50565b6111756112b8565b73ffffffffffffffffffffffffffffffffffffffff166111936109d3565b73ffffffffffffffffffffffffffffffffffffffff16146111f2576111b66112b8565b6040517f118cdaa70000000000000000000000000000000000000000000000000000000081526004016111e991906113a2565b60405180910390fd5b565b60008060009054906101000a900473ffffffffffffffffffffffffffffffffffffffff169050816000806101000a81548173ffffffffffffffffffffffffffffffffffffffff021916908373ffffffffffffffffffffffffffffffffffffffff1602179055508173ffffffffffffffffffffffffffffffffffffffff168173ffffffffffffffffffffffffffffffffffffffff167f8be0079c531659141344cd1fd0a4f28419497f9722a3daafe3b4186f6b6457e060405160405180910390a35050565b600033905090565b6000819050919050565b6112d3816112c0565b82525050565b60006020820190506112ee60008301846112ca565b92915050565b6000604051905090565b600080fd5b600080fd5b611311816112c0565b811461131c57600080fd5b50565b60008135905061132e81611308565b92915050565b60006020828403121561134a576113496112fe565b5b60006113588482850161131f565b91505092915050565b600073ffffffffffffffffffffffffffffffffffffffff82169050919050565b600061138c82611361565b9050919050565b61139c81611381565b82525050565b60006020820190506113b76000830184611393565b92915050565b6113c681611381565b81146113d157600080fd5b50565b6000813590506113e3816113bd565b92915050565b6000602082840312156113ff576113fe6112fe565b5b600061140d848285016113d4565b91505092915050565b60008115159050919050565b61142b81611416565b82525050565b60006020820190506114466000830184611422565b92915050565b60008060408385031215611463576114626112fe565b5b60006114718582860161131f565b9250506020611482858286016113d4565b9150509250929050565b600061149782611361565b9050919050565b6114a78161148c565b82525050565b600081519050919050565b600082825260208201905092915050565b60005b838110156114e75780820151818401526020810190506114cc565b60008484015250505050565b6000601f19601f8301169050919050565b600061150f826114ad565b61151981856114b8565b93506115298185602086016114c9565b611532816114f3565b840191505092915050565b600060a082019050611552600083018861149e565b61155f60208301876112ca565b81810360408301526115718186611504565b90506115806060830185611422565b61158d60808301846112ca565b9695505050505050565b6115a08161148c565b81146115ab57600080fd5b50565b6000813590506115bd81611597565b92915050565b600080fd5b600080fd5b7f4e487b7100000000000000000000000000000000000000000000000000000000600052604160045260246000fd5b611605826114f3565b810181811067ffffffffffffffff82111715611624576116236115cd565b5b80604052505050565b60006116376112f4565b905061164382826115fc565b919050565b600067ffffffffffffffff821115611663576116626115cd565b5b61166c826114f3565b9050602081019050919050565b82818337600083830152505050565b600061169b61169684611648565b61162d565b9050828152602081018484840111156116b7576116b66115c8565b5b6116c2848285611679565b509392505050565b600082601f8301126116df576116de6115c3565b5b81356116ef848260208601611688565b91505092915050565b600080600060608486031215611711576117106112fe565b5b600061171f868287016115ae565b93505060206117308682870161131f565b925050604084013567ffffffffffffffff81111561175157611750611303565b5b61175d868287016116ca565b9150509250925092565b7f4e487b7100000000000000000000000000000000000000000000000000000000600052603260045260246000fd5b7f4e487b7100000000000000000000000000000000000000000000000000000000600052601160045260246000fd5b60006117d0826112c0565b91506117db836112c0565b92508282039050818111156117f3576117f2611796565b5b92915050565b7f4e487b7100000000000000000000000000000000000000000000000000000000600052603160045260246000fd5b6000611833826112c0565b91507fffffffffffffffffffffffffffffffffffffffffffffffffffffffffffffffff820361186557611864611796565b5b600182019050919050565b7f4e487b7100000000000000000000000000000000000000000000000000000000600052602260045260246000fd5b600060028204905060018216806118b757607f821691505b6020821081036118ca576118c9611870565b5b50919050565b60006118db826112c0565b91506118e6836112c0565b92508282019050808211156118fe576118fd611796565b5b92915050565b60008190508160005260206000209050919050565b60006020601f8301049050919050565b600082821b905092915050565b6000600883026119667fffffffffffffffffffffffffffffffffffffffffffffffffffffffffffffffff82611929565b6119708683611929565b95508019841693508086168417925050509392505050565b6000819050919050565b60006119ad6119a86119a3846112c0565b611988565b6112c0565b9050919050565b6000819050919050565b6119c783611992565b6119db6119d3826119b4565b848454611936565b825550505050565b600090565b6119f06119e3565b6119fb8184846119be565b505050565b5b81811015611a1f57611a146000826119e8565b600181019050611a01565b5050565b601f821115611a6457611a3581611904565b611a3e84611919565b81016020851015611a4d578190505b611a61611a5985611919565b830182611a00565b50505b505050565b600082821c905092915050565b6000611a8760001984600802611a69565b1980831691505092915050565b6000611aa08383611a76565b9150826002028217905092915050565b611ab9826114ad565b67ffffffffffffffff811115611ad257611ad16115cd565b5b611adc825461189f565b611ae7828285611a23565b600060209050601f831160018114611b1a5760008415611b08578287015190505b611b128582611a94565b865550611b7a565b601f198416611b2886611904565b60005b82811015611b5057848901518255600182019150602085019450602081019050611b2b565b86831015611b6d5784890151611b69601f891682611a76565b8355505b6001600288020188555050505b505050505050565b600081905092915050565b60008154611b9a8161189f565b611ba48186611b82565b94506001821660008114611bbf5760018114611bd457611c07565b60ff1983168652811515820286019350611c07565b611bdd85611904565b60005b83811015611bff57815481890152600182019150602081019050611be0565b838801955050505b50505092915050565b6000611c1c8284611b8d565b91508190509291505056fea26469706673582212203e545dceca57a647f882a449d3d4a788fd400c18ad37329e60e3c4270df1aef064736f6c63430008140033",
  "linkReferences": {},
  "deployedLinkReferences": {}
}