{
  "_format": "hh-sol-artifact-1",
  "contractName": "OrderBook",
  "sourceName": "contracts/USDTOrderBook.sol",
  "abi": [
    {
      "anonymous": false,
      "inputs": [
        {
          "indexed": false,
          "internalType": "uint256",
          "name": "orderId",
          "type": "uint256"
        },
        {
          "indexed": false,
          "internalType": "address",
          "name": "user",
          "type": "address"
        },
        {
          "indexed": false,
          "internalType": "uint256",
          "name": "price",
          "type": "uint256"
        },
        {
          "indexed": false,
          "internalType": "uint256",
          "name": "amount",
          "type": "uint256"
        },
        {
          "indexed": false,
          "internalType": "bool",
          "name": "isBuyOrder",
          "type": "bool"
        }
      ],
      "name": "OrderPlaced",
      "type": "event"
    },
    {
      "anonymous": false,
      "inputs": [
        {
          "indexed": false,
          "internalType": "uint256",
          "name": "buyOrderId",
          "type": "uint256"
        },
        {
          "indexed": false,
          "internalType": "uint256",
          "name": "sellOrderId",
          "type": "uint256"
        },
        {
          "indexed": false,
          "internalType": "uint256",
          "name": "amount",
          "type": "uint256"
        },
        {
          "indexed": false,
          "internalType": "uint256",
          "name": "price",
          "type": "uint256"
        }
      ],
      "name": "TradeExecuted",
      "type": "event"
    },
    {
      "inputs": [
        {
          "internalType": "uint256",
          "name": "buyOrderId",
          "type": "uint256"
        },
        {
          "internalType": "uint256",
          "name": "sellOrderId",
          "type": "uint256"
        },
        {
          "internalType": "uint256",
          "name": "amount",
          "type": "uint256"
        }
      ],
      "name": "executeTrade",
      "outputs": [],
      "stateMutability": "nonpayable",
      "type": "function"
    },
    {
      "inputs": [],
      "name": "getAllOrders",
      "outputs": [
        {
          "components": [
            {
              "internalType": "address",
              "name": "user",
              "type": "address"
            },
            {
              "internalType": "uint256",
              "name": "price",
              "type": "uint256"
            },
            {
              "internalType": "uint256",
              "name": "amount",
              "type": "uint256"
            },
            {
              "internalType": "bool",
              "name": "isBuyOrder",
              "type": "bool"
            }
          ],
          "internalType": "struct OrderBook.Order[]",
          "name": "",
          "type": "tuple[]"
        }
      ],
      "stateMutability": "view",
      "type": "function"
    },
    {
      "inputs": [
        {
          "internalType": "uint256",
          "name": "orderId",
          "type": "uint256"
        }
      ],
      "name": "getOrder",
      "outputs": [
        {
          "components": [
            {
              "internalType": "address",
              "name": "user",
              "type": "address"
            },
            {
              "internalType": "uint256",
              "name": "price",
              "type": "uint256"
            },
            {
              "internalType": "uint256",
              "name": "amount",
              "type": "uint256"
            },
            {
              "internalType": "bool",
              "name": "isBuyOrder",
              "type": "bool"
            }
          ],
          "internalType": "struct OrderBook.Order",
          "name": "",
          "type": "tuple"
        }
      ],
      "stateMutability": "view",
      "type": "function"
    },
    {
      "inputs": [],
      "name": "orderCount",
      "outputs": [
        {
          "internalType": "uint256",
          "name": "",
          "type": "uint256"
        }
      ],
      "stateMutability": "view",
      "type": "function"
    },
    {
      "inputs": [
        {
          "internalType": "uint256",
          "name": "",
          "type": "uint256"
        }
      ],
      "name": "orders",
      "outputs": [
        {
          "internalType": "address",
          "name": "user",
          "type": "address"
        },
        {
          "internalType": "uint256",
          "name": "price",
          "type": "uint256"
        },
        {
          "internalType": "uint256",
          "name": "amount",
          "type": "uint256"
        },
        {
          "internalType": "bool",
          "name": "isBuyOrder",
          "type": "bool"
        }
      ],
      "stateMutability": "view",
      "type": "function"
    },
    {
      "inputs": [
        {
          "internalType": "uint256",
          "name": "price",
          "type": "uint256"
        },
        {
          "internalType": "uint256",
          "name": "amount",
          "type": "uint256"
        },
        {
          "internalType": "bool",
          "name": "isBuyOrder",
          "type": "bool"
        }
      ],
      "name": "placeOrder",
      "outputs": [
        {
          "internalType": "uint256",
          "name": "",
          "type": "uint256"
        }
      ],
      "stateMutability": "nonpayable",
      "type": "function"
    }
  ],
  "bytecode": "0x608060405234801561001057600080fd5b50610e67806100206000396000f3fe608060405234801561001057600080fd5b50600436106100625760003560e01c80632453ffa81461006757806335cd4a21146100855780637bea0d1c146100a1578063a85c38ef146100bf578063bd2d447d146100f2578063d09ef24114610122575b600080fd5b61006f610152565b60405161007c9190610720565b60405180910390f35b61009f600480360381019061009a919061076c565b610158565b005b6100a9610347565b6040516100b6919061092e565b60405180910390f35b6100d960048036038101906100d49190610950565b61048b565b6040516100e9949392919061099b565b60405180910390f35b61010c60048036038101906101079190610a0c565b6104e8565b6040516101199190610720565b60405180910390f35b61013c60048036038101906101379190610950565b610616565b6040516101499190610ab4565b60405180910390f35b60015481565b60008060008581526020019081526020016000209050600080600085815260200190815260200160002090508160030160009054906101000a900460ff166101d5576040517f08c379a00000000000000000000000000000000000000000000000000000000081526004016101cc90610b2c565b60405180910390fd5b8060030160009054906101000a900460ff1615610227576040517f08c379a000000000000000000000000000000000000000000000000000000000815260040161021e90610b98565b60405180910390fd5b806001015482600101541015610272576040517f08c379a000000000000000000000000000000000000000000000000000000000815260040161026990610c04565b60405180910390fd5b8282600201541015801561028a575082816002015410155b6102c9576040517f08c379a00000000000000000000000000000000000000000000000000000000081526004016102c090610c70565b60405180910390fd5b828260020160008282546102dd9190610cbf565b92505081905550828160020160008282546102f89190610cbf565b925050819055507fdebfa329389a6f20d44c8ae61763ba5f5ddfe7f867d953dbcd740a80568fcbd285858584600101546040516103389493929190610cf3565b60405180910390a15050505050565b6060600060015467ffffffffffffffff81111561036757610366610d38565b5b6040519080825280602002602001820160405280156103a057816020015b61038d6106c7565b8152602001906001900390816103855790505b50905060005b600154811015610483576000808281526020019081526020016000206040518060800160405290816000820160009054906101000a900473ffffffffffffffffffffffffffffffffffffffff1673ffffffffffffffffffffffffffffffffffffffff1673ffffffffffffffffffffffffffffffffffffffff16815260200160018201548152602001600282015481526020016003820160009054906101000a900460ff16151515158152505082828151811061046557610464610d67565b5b6020026020010181905250808061047b90610d96565b9150506103a6565b508091505090565b60006020528060005260406000206000915090508060000160009054906101000a900473ffffffffffffffffffffffffffffffffffffffff16908060010154908060020154908060030160009054906101000a900460ff16905084565b600060405180608001604052803373ffffffffffffffffffffffffffffffffffffffff168152602001858152602001848152602001831515815250600080600154815260200190815260200160002060008201518160000160006101000a81548173ffffffffffffffffffffffffffffffffffffffff021916908373ffffffffffffffffffffffffffffffffffffffff160217905550602082015181600101556040820151816002015560608201518160030160006101000a81548160ff0219169083151502179055509050507f1ad1a5ae4ffda7ac4728a3f999d312ee8c3bf93f8f9bec6ea55609ec2980c0d7600154338686866040516105ee959493929190610dde565b60405180910390a16001600081548092919061060990610d96565b9190505590509392505050565b61061e6106c7565b6000808381526020019081526020016000206040518060800160405290816000820160009054906101000a900473ffffffffffffffffffffffffffffffffffffffff1673ffffffffffffffffffffffffffffffffffffffff1673ffffffffffffffffffffffffffffffffffffffff16815260200160018201548152602001600282015481526020016003820160009054906101000a900460ff1615151515815250509050919050565b6040518060800160405280600073ffffffffffffffffffffffffffffffffffffffff16815260200160008152602001600081526020016000151581525090565b6000819050919050565b61071a81610707565b82525050565b60006020820190506107356000830184610711565b92915050565b600080fd5b61074981610707565b811461075457600080fd5b50565b60008135905061076681610740565b92915050565b6000806000606084860312156107855761078461073b565b5b600061079386828701610757565b93505060206107a486828701610757565b92505060406107b586828701610757565b9150509250925092565b600081519050919050565b600082825260208201905092915050565b6000819050602082019050919050565b600073ffffffffffffffffffffffffffffffffffffffff82169050919050565b6000610816826107eb565b9050919050565b6108268161080b565b82525050565b61083581610707565b82525050565b60008115159050919050565b6108508161083b565b82525050565b60808201600082015161086c600085018261081d565b50602082015161087f602085018261082c565b506040820151610892604085018261082c565b5060608201516108a56060850182610847565b50505050565b60006108b78383610856565b60808301905092915050565b6000602082019050919050565b60006108db826107bf565b6108e581856107ca565b93506108f0836107db565b8060005b8381101561092157815161090888826108ab565b9750610913836108c3565b9250506001810190506108f4565b5085935050505092915050565b6000602082019050818103600083015261094881846108d0565b905092915050565b6000602082840312156109665761096561073b565b5b600061097484828501610757565b91505092915050565b6109868161080b565b82525050565b6109958161083b565b82525050565b60006080820190506109b0600083018761097d565b6109bd6020830186610711565b6109ca6040830185610711565b6109d7606083018461098c565b95945050505050565b6109e98161083b565b81146109f457600080fd5b50565b600081359050610a06816109e0565b92915050565b600080600060608486031215610a2557610a2461073b565b5b6000610a3386828701610757565b9350506020610a4486828701610757565b9250506040610a55868287016109f7565b9150509250925092565b608082016000820151610a75600085018261081d565b506020820151610a88602085018261082c565b506040820151610a9b604085018261082c565b506060820151610aae6060850182610847565b50505050565b6000608082019050610ac96000830184610a5f565b92915050565b600082825260208201905092915050565b7f427579206f7264657220697320696e76616c6964000000000000000000000000600082015250565b6000610b16601483610acf565b9150610b2182610ae0565b602082019050919050565b60006020820190508181036000830152610b4581610b09565b9050919050565b7f53656c6c206f7264657220697320696e76616c69640000000000000000000000600082015250565b6000610b82601583610acf565b9150610b8d82610b4c565b602082019050919050565b60006020820190508181036000830152610bb181610b75565b9050919050565b7f5072696365206d69736d61746368000000000000000000000000000000000000600082015250565b6000610bee600e83610acf565b9150610bf982610bb8565b602082019050919050565b60006020820190508181036000830152610c1d81610be1565b9050919050565b7f496e73756666696369656e7420616d6f756e7400000000000000000000000000600082015250565b6000610c5a601383610acf565b9150610c6582610c24565b602082019050919050565b60006020820190508181036000830152610c8981610c4d565b9050919050565b7f4e487b7100000000000000000000000000000000000000000000000000000000600052601160045260246000fd5b6000610cca82610707565b9150610cd583610707565b9250828203905081811115610ced57610cec610c90565b5b92915050565b6000608082019050610d086000830187610711565b610d156020830186610711565b610d226040830185610711565b610d2f6060830184610711565b95945050505050565b7f4e487b7100000000000000000000000000000000000000000000000000000000600052604160045260246000fd5b7f4e487b7100000000000000000000000000000000000000000000000000000000600052603260045260246000fd5b6000610da182610707565b91507fffffffffffffffffffffffffffffffffffffffffffffffffffffffffffffffff8203610dd357610dd2610c90565b5b600182019050919050565b600060a082019050610df36000830188610711565b610e00602083018761097d565b610e0d6040830186610711565b610e1a6060830185610711565b610e27608083018461098c565b969550505050505056fea2646970667358221220489ba345627ab5f94062c8504371fca9f485af57f50d009df93423af899e1d8664736f6c63430008140033",
  "linkReferences": {},
  "deployedLinkReferences": {}
}