{
  "_format": "hh-sol-artifact-1",
  "contractName": "OrderBook",
  "sourceName": "contracts/USDTOrderBook.sol",
  "abi": [
    {
      "anonymous": false,
      "inputs": [
        {
          "indexed": false,
          "internalType": "uint256",
          "name": "orderId",
          "type": "uint256"
        },
        {
          "indexed": false,
          "internalType": "address",
          "name": "user",
          "type": "address"
        },
        {
          "indexed": false,
          "internalType": "uint256",
          "name": "price",
          "type": "uint256"
        },
        {
          "indexed": false,
          "internalType": "uint256",
          "name": "amount",
          "type": "uint256"
        },
        {
          "indexed": false,
          "internalType": "bool",
          "name": "isBuyOrder",
          "type": "bool"
        }
      ],
      "name": "OrderPlaced",
      "type": "event"
    },
    {
      "anonymous": false,
      "inputs": [
        {
          "indexed": false,
          "internalType": "uint256",
          "name": "buyOrderId",
          "type": "uint256"
        },
        {
          "indexed": false,
          "internalType": "uint256",
          "name": "sellOrderId",
          "type": "uint256"
        },
        {
          "indexed": false,
          "internalType": "uint256",
          "name": "amount",
          "type": "uint256"
        },
        {
          "indexed": false,
          "internalType": "uint256",
          "name": "price",
          "type": "uint256"
        }
      ],
      "name": "TradeExecuted",
      "type": "event"
    },
    {
      "inputs": [
        {
          "internalType": "uint256",
          "name": "buyOrderId",
          "type": "uint256"
        },
        {
          "internalType": "uint256",
          "name": "sellOrderId",
          "type": "uint256"
        },
        {
          "internalType": "uint256",
          "name": "amount",
          "type": "uint256"
        }
      ],
      "name": "executeTrade",
      "outputs": [],
      "stateMutability": "nonpayable",
      "type": "function"
    },
    {
      "inputs": [],
      "name": "getAllOrders",
      "outputs": [
        {
          "components": [
            {
              "internalType": "address",
              "name": "user",
              "type": "address"
            },
            {
              "internalType": "uint256",
              "name": "price",
              "type": "uint256"
            },
            {
              "internalType": "uint256",
              "name": "amount",
              "type": "uint256"
            },
            {
              "internalType": "bool",
              "name": "isBuyOrder",
              "type": "bool"
            }
          ],
          "internalType": "struct OrderBook.Order[]",
          "name": "",
          "type": "tuple[]"
        }
      ],
      "stateMutability": "view",
      "type": "function"
    },
    {
      "inputs": [
        {
          "internalType": "uint256",
          "name": "orderId",
          "type": "uint256"
        }
      ],
      "name": "getOrder",
      "outputs": [
        {
          "components": [
            {
              "internalType": "address",
              "name": "user",
              "type": "address"
            },
            {
              "internalType": "uint256",
              "name": "price",
              "type": "uint256"
            },
            {
              "internalType": "uint256",
              "name": "amount",
              "type": "uint256"
            },
            {
              "internalType": "bool",
              "name": "isBuyOrder",
              "type": "bool"
            }
          ],
          "internalType": "struct OrderBook.Order",
          "name": "",
          "type": "tuple"
        }
      ],
      "stateMutability": "view",
      "type": "function"
    },
    {
      "inputs": [],
      "name": "orderCount",
      "outputs": [
        {
          "internalType": "uint256",
          "name": "",
          "type": "uint256"
        }
      ],
      "stateMutability": "view",
      "type": "function"
    },
    {
      "inputs": [
        {
          "internalType": "uint256",
          "name": "",
          "type": "uint256"
        }
      ],
      "name": "orders",
      "outputs": [
        {
          "internalType": "address",
          "name": "user",
          "type": "address"
        },
        {
          "internalType": "uint256",
          "name": "price",
          "type": "uint256"
        },
        {
          "internalType": "uint256",
          "name": "amount",
          "type": "uint256"
        },
        {
          "internalType": "bool",
          "name": "isBuyOrder",
          "type": "bool"
        }
      ],
      "stateMutability": "view",
      "type": "function"
    },
    {
      "inputs": [
        {
          "internalType": "uint256",
          "name": "price",
          "type": "uint256"
        },
        {
          "internalType": "uint256",
          "name": "amount",
          "type": "uint256"
        },
        {
          "internalType": "bool",
          "name": "isBuyOrder",
          "type": "bool"
        }
      ],
      "name": "placeOrder",
      "outputs": [
        {
          "internalType": "uint256",
          "name": "",
          "type": "uint256"
        }
      ],
      "stateMutability": "nonpayable",
      "type": "function"
    }
  ],
  "bytecode": "0x608060405234801561001057600080fd5b50610e61806100206000396000f3fe608060405234801561001057600080fd5b50600436106100625760003560e01c80632453ffa81461006757806335cd4a21146100855780637bea0d1c146100a1578063a85c38ef146100bf578063bd2d447d146100f2578063d09ef24114610122575b600080fd5b61006f610152565b60405161007c919061071a565b60405180910390f35b61009f600480360381019061009a9190610766565b610158565b005b6100a9610347565b6040516100b69190610928565b60405180910390f35b6100d960048036038101906100d4919061094a565b610485565b6040516100e99493929190610995565b60405180910390f35b61010c60048036038101906101079190610a06565b6104e2565b604051610119919061071a565b60405180910390f35b61013c6004803603810190610137919061094a565b610610565b6040516101499190610aae565b60405180910390f35b60015481565b60008060008581526020019081526020016000209050600080600085815260200190815260200160002090508160030160009054906101000a900460ff166101d5576040517f08c379a00000000000000000000000000000000000000000000000000000000081526004016101cc90610b26565b60405180910390fd5b8060030160009054906101000a900460ff1615610227576040517f08c379a000000000000000000000000000000000000000000000000000000000815260040161021e90610b92565b60405180910390fd5b806001015482600101541015610272576040517f08c379a000000000000000000000000000000000000000000000000000000000815260040161026990610bfe565b60405180910390fd5b8282600201541015801561028a575082816002015410155b6102c9576040517f08c379a00000000000000000000000000000000000000000000000000000000081526004016102c090610c6a565b60405180910390fd5b828260020160008282546102dd9190610cb9565b92505081905550828160020160008282546102f89190610cb9565b925050819055507fdebfa329389a6f20d44c8ae61763ba5f5ddfe7f867d953dbcd740a80568fcbd285858584600101546040516103389493929190610ced565b60405180910390a15050505050565b6060600060015467ffffffffffffffff81111561036757610366610d32565b5b6040519080825280602002602001820160405280156103a057816020015b61038d6106c1565b8152602001906001900390816103855790505b50905060005b60015481101561047d576000808281526020019081526020016000206040518060800160405290816000820160009054906101000a900473ffffffffffffffffffffffffffffffffffffffff1673ffffffffffffffffffffffffffffffffffffffff1673ffffffffffffffffffffffffffffffffffffffff16815260200160018201548152602001600282015481526020016003820160009054906101000a900460ff16151515158152505082828151811061046557610464610d61565b5b602002602001018190525080806001019150506103a6565b508091505090565b60006020528060005260406000206000915090508060000160009054906101000a900473ffffffffffffffffffffffffffffffffffffffff16908060010154908060020154908060030160009054906101000a900460ff16905084565b600060405180608001604052803373ffffffffffffffffffffffffffffffffffffffff168152602001858152602001848152602001831515815250600080600154815260200190815260200160002060008201518160000160006101000a81548173ffffffffffffffffffffffffffffffffffffffff021916908373ffffffffffffffffffffffffffffffffffffffff160217905550602082015181600101556040820151816002015560608201518160030160006101000a81548160ff0219169083151502179055509050507f1ad1a5ae4ffda7ac4728a3f999d312ee8c3bf93f8f9bec6ea55609ec2980c0d7600154338686866040516105e8959493929190610d90565b60405180910390a16001600081548092919061060390610de3565b9190505590509392505050565b6106186106c1565b6000808381526020019081526020016000206040518060800160405290816000820160009054906101000a900473ffffffffffffffffffffffffffffffffffffffff1673ffffffffffffffffffffffffffffffffffffffff1673ffffffffffffffffffffffffffffffffffffffff16815260200160018201548152602001600282015481526020016003820160009054906101000a900460ff1615151515815250509050919050565b6040518060800160405280600073ffffffffffffffffffffffffffffffffffffffff16815260200160008152602001600081526020016000151581525090565b6000819050919050565b61071481610701565b82525050565b600060208201905061072f600083018461070b565b92915050565b600080fd5b61074381610701565b811461074e57600080fd5b50565b6000813590506107608161073a565b92915050565b60008060006060848603121561077f5761077e610735565b5b600061078d86828701610751565b935050602061079e86828701610751565b92505060406107af86828701610751565b9150509250925092565b600081519050919050565b600082825260208201905092915050565b6000819050602082019050919050565b600073ffffffffffffffffffffffffffffffffffffffff82169050919050565b6000610810826107e5565b9050919050565b61082081610805565b82525050565b61082f81610701565b82525050565b60008115159050919050565b61084a81610835565b82525050565b6080820160008201516108666000850182610817565b5060208201516108796020850182610826565b50604082015161088c6040850182610826565b50606082015161089f6060850182610841565b50505050565b60006108b18383610850565b60808301905092915050565b6000602082019050919050565b60006108d5826107b9565b6108df81856107c4565b93506108ea836107d5565b8060005b8381101561091b57815161090288826108a5565b975061090d836108bd565b9250506001810190506108ee565b5085935050505092915050565b6000602082019050818103600083015261094281846108ca565b905092915050565b6000602082840312156109605761095f610735565b5b600061096e84828501610751565b91505092915050565b61098081610805565b82525050565b61098f81610835565b82525050565b60006080820190506109aa6000830187610977565b6109b7602083018661070b565b6109c4604083018561070b565b6109d16060830184610986565b95945050505050565b6109e381610835565b81146109ee57600080fd5b50565b600081359050610a00816109da565b92915050565b600080600060608486031215610a1f57610a1e610735565b5b6000610a2d86828701610751565b9350506020610a3e86828701610751565b9250506040610a4f868287016109f1565b9150509250925092565b608082016000820151610a6f6000850182610817565b506020820151610a826020850182610826565b506040820151610a956040850182610826565b506060820151610aa86060850182610841565b50505050565b6000608082019050610ac36000830184610a59565b92915050565b600082825260208201905092915050565b7f427579206f7264657220697320696e76616c6964000000000000000000000000600082015250565b6000610b10601483610ac9565b9150610b1b82610ada565b602082019050919050565b60006020820190508181036000830152610b3f81610b03565b9050919050565b7f53656c6c206f7264657220697320696e76616c69640000000000000000000000600082015250565b6000610b7c601583610ac9565b9150610b8782610b46565b602082019050919050565b60006020820190508181036000830152610bab81610b6f565b9050919050565b7f5072696365206d69736d61746368000000000000000000000000000000000000600082015250565b6000610be8600e83610ac9565b9150610bf382610bb2565b602082019050919050565b60006020820190508181036000830152610c1781610bdb565b9050919050565b7f496e73756666696369656e7420616d6f756e7400000000000000000000000000600082015250565b6000610c54601383610ac9565b9150610c5f82610c1e565b602082019050919050565b60006020820190508181036000830152610c8381610c47565b9050919050565b7f4e487b7100000000000000000000000000000000000000000000000000000000600052601160045260246000fd5b6000610cc482610701565b9150610ccf83610701565b9250828203905081811115610ce757610ce6610c8a565b5b92915050565b6000608082019050610d02600083018761070b565b610d0f602083018661070b565b610d1c604083018561070b565b610d29606083018461070b565b95945050505050565b7f4e487b7100000000000000000000000000000000000000000000000000000000600052604160045260246000fd5b7f4e487b7100000000000000000000000000000000000000000000000000000000600052603260045260246000fd5b600060a082019050610da5600083018861070b565b610db26020830187610977565b610dbf604083018661070b565b610dcc606083018561070b565b610dd96080830184610986565b9695505050505050565b6000610dee82610701565b91507fffffffffffffffffffffffffffffffffffffffffffffffffffffffffffffffff8203610e2057610e1f610c8a565b5b60018201905091905056fea264697066735822122042431a6560bcfd2590c274e000353bb4c4dafc9aec211ee26956254ad24763ad64736f6c63430008180033",
  "linkReferences": {},
  "deployedLinkReferences": {}
}